{
  "contractName": "Market",
  "abi": [
    {
      "constant": true,
      "inputs": [],
      "name": "PERMIT_TYPEHASH",
      "outputs": [
        {
          "name": "",
          "type": "bytes32"
        }
      ],
      "payable": false,
      "stateMutability": "view",
      "type": "function"
    },
    {
      "constant": true,
      "inputs": [],
      "name": "DOMAIN_SEPARATOR",
      "outputs": [
        {
          "name": "",
          "type": "bytes32"
        }
      ],
      "payable": false,
      "stateMutability": "view",
      "type": "function"
    },
    {
      "constant": true,
      "inputs": [],
      "name": "OFFER_TIMEOUT",
      "outputs": [
        {
          "name": "",
          "type": "uint256"
        }
      ],
      "payable": false,
      "stateMutability": "view",
      "type": "function"
    },
    {
      "constant": true,
      "inputs": [],
      "name": "lastTimeOutedOffer",
      "outputs": [
        {
          "name": "",
          "type": "uint256"
        }
      ],
      "payable": false,
      "stateMutability": "view",
      "type": "function"
    },
    {
      "constant": true,
      "inputs": [
        {
          "name": "",
          "type": "uint256"
        }
      ],
      "name": "offers",
      "outputs": [
        {
          "name": "destCurrency",
          "type": "string"
        },
        {
          "name": "creator",
          "type": "address"
        },
        {
          "name": "taker",
          "type": "address"
        },
        {
          "name": "sumIn",
          "type": "uint256"
        },
        {
          "name": "sumOut",
          "type": "uint256"
        },
        {
          "name": "totalDeposited",
          "type": "uint256"
        },
        {
          "name": "timeStarted",
          "type": "uint32"
        },
        {
          "name": "status",
          "type": "uint8"
        }
      ],
      "payable": false,
      "stateMutability": "view",
      "type": "function"
    },
    {
      "constant": true,
      "inputs": [],
      "name": "timeOutBeneficiary",
      "outputs": [
        {
          "name": "",
          "type": "address"
        }
      ],
      "payable": false,
      "stateMutability": "view",
      "type": "function"
    },
    {
      "constant": true,
      "inputs": [],
      "name": "daiToken",
      "outputs": [
        {
          "name": "",
          "type": "address"
        }
      ],
      "payable": false,
      "stateMutability": "view",
      "type": "function"
    },
    {
      "constant": true,
      "inputs": [],
      "name": "lastClearedOfferIndex",
      "outputs": [
        {
          "name": "",
          "type": "uint256"
        }
      ],
      "payable": false,
      "stateMutability": "view",
      "type": "function"
    },
    {
      "constant": true,
      "inputs": [],
      "name": "dai",
      "outputs": [
        {
          "name": "",
          "type": "address"
        }
      ],
      "payable": false,
      "stateMutability": "view",
      "type": "function"
    },
    {
      "inputs": [
        {
          "name": "_relayerHub",
          "type": "address"
        },
        {
          "name": "_dai",
          "type": "address"
        },
        {
          "name": "_bfv",
          "type": "address"
        }
      ],
      "payable": false,
      "stateMutability": "nonpayable",
      "type": "constructor"
    },
    {
      "anonymous": false,
      "inputs": [
        {
          "indexed": true,
          "name": "taker",
          "type": "address"
        },
        {
          "indexed": true,
          "name": "creator",
          "type": "address"
        },
        {
          "indexed": false,
          "name": "offerId",
          "type": "uint256"
        },
        {
          "indexed": false,
          "name": "destinationStatus",
          "type": "uint8"
        },
        {
          "indexed": false,
          "name": "sourceStatus",
          "type": "uint8"
        }
      ],
      "name": "ProcessOffer",
      "type": "event"
    },
    {
      "constant": true,
      "inputs": [],
      "name": "getSender",
      "outputs": [
        {
          "name": "",
          "type": "address"
        }
      ],
      "payable": false,
      "stateMutability": "view",
      "type": "function"
    },
    {
      "constant": false,
      "inputs": [
        {
          "name": "v",
          "type": "uint8"
        },
        {
          "name": "r",
          "type": "bytes32"
        },
        {
          "name": "s",
          "type": "bytes32"
        }
      ],
      "name": "permit",
      "outputs": [],
      "payable": false,
      "stateMutability": "nonpayable",
      "type": "function"
    },
    {
      "constant": false,
      "inputs": [
        {
          "name": "data",
          "type": "bytes"
        },
        {
          "name": "nonce",
          "type": "uint256"
        },
        {
          "name": "v",
          "type": "uint8"
        },
        {
          "name": "r",
          "type": "bytes32"
        },
        {
          "name": "s",
          "type": "bytes32"
        }
      ],
      "name": "relayCall",
      "outputs": [],
      "payable": false,
      "stateMutability": "nonpayable",
      "type": "function"
    },
    {
      "constant": true,
      "inputs": [
        {
          "name": "holder",
          "type": "address"
        }
      ],
      "name": "generateDigest",
      "outputs": [
        {
          "name": "",
          "type": "bytes32"
        }
      ],
      "payable": false,
      "stateMutability": "view",
      "type": "function"
    },
    {
      "constant": true,
      "inputs": [
        {
          "name": "data",
          "type": "bytes"
        },
        {
          "name": "user",
          "type": "address"
        }
      ],
      "name": "generateMethodCallDigest",
      "outputs": [
        {
          "name": "",
          "type": "bytes32"
        }
      ],
      "payable": false,
      "stateMutability": "view",
      "type": "function"
    },
    {
      "constant": false,
      "inputs": [
        {
          "name": "sourceAmount",
          "type": "uint256"
        },
        {
          "name": "destAmount",
          "type": "uint256"
        },
        {
          "name": "destCurrency",
          "type": "string"
        }
      ],
      "name": "addOffer",
      "outputs": [
        {
          "name": "offerId",
          "type": "uint256"
        }
      ],
      "payable": false,
      "stateMutability": "nonpayable",
      "type": "function"
    },
    {
      "constant": true,
      "inputs": [
        {
          "name": "sender",
          "type": "address"
        },
        {
          "name": "offerId",
          "type": "uint256"
        },
        {
          "name": "destinationStateInt",
          "type": "uint8"
        }
      ],
      "name": "canMove",
      "outputs": [
        {
          "name": "result",
          "type": "bool"
        },
        {
          "name": "reason",
          "type": "string"
        }
      ],
      "payable": false,
      "stateMutability": "view",
      "type": "function"
    },
    {
      "constant": true,
      "inputs": [
        {
          "name": "offerId",
          "type": "uint256"
        },
        {
          "name": "sender",
          "type": "address"
        }
      ],
      "name": "nextMove",
      "outputs": [
        {
          "name": "message",
          "type": "string"
        },
        {
          "name": "step",
          "type": "uint8"
        }
      ],
      "payable": false,
      "stateMutability": "view",
      "type": "function"
    },
    {
      "constant": false,
      "inputs": [
        {
          "name": "offerId",
          "type": "uint256"
        },
        {
          "name": "destinationStateInt",
          "type": "uint8"
        }
      ],
      "name": "move",
      "outputs": [],
      "payable": false,
      "stateMutability": "nonpayable",
      "type": "function"
    },
    {
      "constant": true,
      "inputs": [],
      "name": "getLastOfferIndex",
      "outputs": [
        {
          "name": "",
          "type": "int256"
        }
      ],
      "payable": false,
      "stateMutability": "view",
      "type": "function"
    },
    {
      "constant": false,
      "inputs": [],
      "name": "houseKeeping",
      "outputs": [],
      "payable": false,
      "stateMutability": "nonpayable",
      "type": "function"
    }
  ],
  "bytecode": "0x60806040523480156200001157600080fd5b50604051606080620048ec833981018060405262000033919081019062000172565b81600660006101000a81548173ffffffffffffffffffffffffffffffffffffffff021916908373ffffffffffffffffffffffffffffffffffffffff16021790555081600760006101000a81548173ffffffffffffffffffffffffffffffffffffffff021916908373ffffffffffffffffffffffffffffffffffffffff1602179055508173ffffffffffffffffffffffffffffffffffffffff16633644e5156040518163ffffffff1660e01b815260040160206040518083038186803b158015620000fc57600080fd5b505afa15801562000111573d6000803e3d6000fd5b505050506040513d601f19601f82011682018060405250620001379190810190620001c8565b60088190555050505062000232565b6000620001548251620001f4565b905092915050565b60006200016a825162000208565b905092915050565b6000806000606084860312156200018857600080fd5b6000620001988682870162000146565b9350506020620001ab8682870162000146565b9250506040620001be8682870162000146565b9150509250925092565b600060208284031215620001db57600080fd5b6000620001eb848285016200015c565b91505092915050565b6000620002018262000212565b9050919050565b6000819050919050565b600073ffffffffffffffffffffffffffffffffffffffff82169050919050565b6146aa80620002426000396000f3fe608060405234801561001057600080fd5b506004361061012c5760003560e01c80637114bddc116100ad578063be22f54611610071578063be22f54614610350578063d2b39c241461036e578063d9fa93351461038c578063ea7cbfe414610396578063f4b9fa75146103c65761012c565b80637114bddc146102905780638a72ea6a146102ac5780638f9cfe70146102e35780639ce49a5b14610301578063b8766760146103325761012c565b80633644e515116100f45780633644e515146101e757806337d7cfbe146102055780633e24c6f2146102235780635e01eb5a146102415780635ffa03221461025f5761012c565b806315a17e6a146101315780631d05d7501461014d57806326f3d41b1461017d5780632d3e0851146101ad57806330adf81f146101c9575b600080fd5b61014b60048036036101469190810190613596565b6103e4565b005b61016760048036036101629190810190613411565b6105c5565b6040516101749190613d89565b60405180910390f35b610197600480360361019291908101906132de565b610637565b6040516101a49190613d89565b60405180910390f35b6101c760048036036101c2919081019061355a565b61076f565b005b6101d1610d78565b6040516101de9190613d89565b60405180910390f35b6101ef610d9f565b6040516101fc9190613d89565b60405180910390f35b61020d610da5565b60405161021a9190614132565b60405180910390f35b61022b610dac565b6040516102389190614132565b60405180910390f35b610249610db2565b6040516102569190613c89565b60405180910390f35b610279600480360361027491908101906134b7565b610ddc565b604051610287929190613ebd565b60405180910390f35b6102aa60048036036102a5919081019061337f565b6114a3565b005b6102c660048036036102c19190810190613465565b6117e8565b6040516102da989796959493929190613eed565b60405180910390f35b6102eb611932565b6040516102f89190613e80565b60405180910390f35b61031b60048036036103169190810190613307565b611942565b604051610329929190613d59565b60405180910390f35b61033a611ff4565b6040516103479190613c89565b60405180910390f35b61035861201a565b6040516103659190613e4a565b60405180910390f35b610376612040565b6040516103839190614132565b60405180910390f35b610394612046565b005b6103b060048036036103ab91908101906134f3565b612102565b6040516103bd9190614132565b60405180910390f35b6103ce612418565b6040516103db9190613e65565b60405180910390f35b3073ffffffffffffffffffffffffffffffffffffffff163373ffffffffffffffffffffffffffffffffffffffff1614610452576040517f08c379a000000000000000000000000000000000000000000000000000000000815260040161044990613f72565b60405180910390fd5b6000839050601b8160ff16101561046a57601b810190505b600760009054906101000a900473ffffffffffffffffffffffffffffffffffffffff1673ffffffffffffffffffffffffffffffffffffffff16638fcbaf0c6104b0610db2565b30600760009054906101000a900473ffffffffffffffffffffffffffffffffffffffff1673ffffffffffffffffffffffffffffffffffffffff16637ecebe006104f7610db2565b6040518263ffffffff1660e01b81526004016105139190613c89565b60206040518083038186803b15801561052b57600080fd5b505afa15801561053f573d6000803e3d6000fd5b505050506040513d601f19601f82011682018060405250610563919081019061348e565b60006001878a8a6040518963ffffffff1660e01b815260040161058d989796959493929190613cdb565b600060405180830381600087803b1580156105a757600080fd5b505af11580156105bb573d6000803e3d6000fd5b5050505050505050565b6000600560008373ffffffffffffffffffffffffffffffffffffffff1673ffffffffffffffffffffffffffffffffffffffff1681526020019081526020016000205483604051602001610619929190613c61565b60405160208183030381529060405280519060200120905092915050565b6000806008547fea2aa0a1be11a07ed86d755c93467f4f82362b452371d1ba94d1715123511acb60001b8430600760009054906101000a900473ffffffffffffffffffffffffffffffffffffffff1673ffffffffffffffffffffffffffffffffffffffff16637ecebe00886040518263ffffffff1660e01b81526004016106be9190613c89565b60206040518083038186803b1580156106d657600080fd5b505afa1580156106ea573d6000803e3d6000fd5b505050506040513d601f19601f8201168201806040525061070e919081019061348e565b6000600160405160200161072796959493929190613da4565b6040516020818303038152906040528051906020012060405160200161074e929190613c00565b60405160208183030381529060405280519060200120905080915050919050565b60008160ff16600581111561078057fe5b905060006002848154811061079157fe5b906000526020600020906007020160060160049054906101000a900460ff169050600260058111156107bf57fe5b8260058111156107cb57fe5b14156108cc57600284815481106107de57fe5b906000526020600020906007020160010160009054906101000a900473ffffffffffffffffffffffffffffffffffffffff1673ffffffffffffffffffffffffffffffffffffffff166002858154811061083357fe5b906000526020600020906007020160020160009054906101000a900473ffffffffffffffffffffffffffffffffffffffff1673ffffffffffffffffffffffffffffffffffffffff167f0e0b7eec3dce0fc4ed71a02dbc0384ad2622214d1f2c46657e51a3536d0076b086868560058111156108aa57fe5b6040516108b99392919061414d565b60405180910390a36108cb818561243e565b5b600360058111156108d957fe5b8260058111156108e557fe5b14156109e657600284815481106108f857fe5b906000526020600020906007020160010160009054906101000a900473ffffffffffffffffffffffffffffffffffffffff1673ffffffffffffffffffffffffffffffffffffffff166002858154811061094d57fe5b906000526020600020906007020160020160009054906101000a900473ffffffffffffffffffffffffffffffffffffffff1673ffffffffffffffffffffffffffffffffffffffff167f0e0b7eec3dce0fc4ed71a02dbc0384ad2622214d1f2c46657e51a3536d0076b086868560058111156109c457fe5b6040516109d39392919061414d565b60405180910390a36109e581856127bb565b5b600460058111156109f357fe5b8260058111156109ff57fe5b1415610b005760028481548110610a1257fe5b906000526020600020906007020160010160009054906101000a900473ffffffffffffffffffffffffffffffffffffffff1673ffffffffffffffffffffffffffffffffffffffff1660028581548110610a6757fe5b906000526020600020906007020160020160009054906101000a900473ffffffffffffffffffffffffffffffffffffffff1673ffffffffffffffffffffffffffffffffffffffff167f0e0b7eec3dce0fc4ed71a02dbc0384ad2622214d1f2c46657e51a3536d0076b08686856005811115610ade57fe5b604051610aed9392919061414d565b60405180910390a3610aff81856128cb565b5b600580811115610b0c57fe5b826005811115610b1857fe5b1415610c195760028481548110610b2b57fe5b906000526020600020906007020160010160009054906101000a900473ffffffffffffffffffffffffffffffffffffffff1673ffffffffffffffffffffffffffffffffffffffff1660028581548110610b8057fe5b906000526020600020906007020160020160009054906101000a900473ffffffffffffffffffffffffffffffffffffffff1673ffffffffffffffffffffffffffffffffffffffff167f0e0b7eec3dce0fc4ed71a02dbc0384ad2622214d1f2c46657e51a3536d0076b08686856005811115610bf757fe5b604051610c069392919061414d565b60405180910390a3610c188185612c7b565b5b60006005811115610c2657fe5b826005811115610c3257fe5b1415610d335760028481548110610c4557fe5b906000526020600020906007020160010160009054906101000a900473ffffffffffffffffffffffffffffffffffffffff1673ffffffffffffffffffffffffffffffffffffffff1660028581548110610c9a57fe5b906000526020600020906007020160020160009054906101000a900473ffffffffffffffffffffffffffffffffffffffff1673ffffffffffffffffffffffffffffffffffffffff167f0e0b7eec3dce0fc4ed71a02dbc0384ad2622214d1f2c46657e51a3536d0076b08686856005811115610d1157fe5b604051610d209392919061414d565b60405180910390a3610d328185612e8d565b5b8160028581548110610d4157fe5b906000526020600020906007020160060160046101000a81548160ff02191690836005811115610d6d57fe5b021790555050505050565b7fea2aa0a1be11a07ed86d755c93467f4f82362b452371d1ba94d1715123511acb60001b81565b60085481565b6201518081565b60015481565b6000600460009054906101000a900473ffffffffffffffffffffffffffffffffffffffff16905090565b606060008060028581548110610dee57fe5b906000526020600020906007020160060160049054906101000a900460ff1690506040518060400160405280601381526020017f4f66666572206e6f7420617661696c61626c6500000000000000000000000000815250925060ff915060016005811115610e5857fe5b816005811115610e6457fe5b1415610f375760028581548110610e7757fe5b906000526020600020906007020160010160009054906101000a900473ffffffffffffffffffffffffffffffffffffffff1673ffffffffffffffffffffffffffffffffffffffff168473ffffffffffffffffffffffffffffffffffffffff161415610f0b5760405180606001604052806021815260200161458360219139925060006005811115610f0457fe5b9150610f36565b60405180606001604052806036815260200161450c60369139925060026005811115610f3357fe5b91505b5b60026005811115610f4457fe5b816005811115610f5057fe5b14156110875760028581548110610f6357fe5b906000526020600020906007020160020160009054906101000a900473ffffffffffffffffffffffffffffffffffffffff1673ffffffffffffffffffffffffffffffffffffffff168473ffffffffffffffffffffffffffffffffffffffff161415610ff7576040518060600160405280603681526020016145a460369139925060036005811115610ff057fe5b9150611086565b6002858154811061100457fe5b906000526020600020906007020160010160009054906101000a900473ffffffffffffffffffffffffffffffffffffffff1673ffffffffffffffffffffffffffffffffffffffff168473ffffffffffffffffffffffffffffffffffffffff161415611085576040518060600160405280602381526020016144e96023913992505b5b5b6003600581111561109457fe5b8160058111156110a057fe5b141561114457600285815481106110b357fe5b906000526020600020906007020160010160009054906101000a900473ffffffffffffffffffffffffffffffffffffffff1673ffffffffffffffffffffffffffffffffffffffff168473ffffffffffffffffffffffffffffffffffffffff161415611134576040518060600160405280602181526020016144236021913992505b6004600581111561114157fe5b91505b6004600581111561115157fe5b81600581111561115d57fe5b1415611294576002858154811061117057fe5b906000526020600020906007020160020160009054906101000a900473ffffffffffffffffffffffffffffffffffffffff1673ffffffffffffffffffffffffffffffffffffffff168473ffffffffffffffffffffffffffffffffffffffff1614156111f557604051806080016040528060418152602001614542604191399250611284565b6002858154811061120257fe5b906000526020600020906007020160010160009054906101000a900473ffffffffffffffffffffffffffffffffffffffff1673ffffffffffffffffffffffffffffffffffffffff168473ffffffffffffffffffffffffffffffffffffffff161415611283576040518060800160405280605281526020016144976052913992505b5b6000600581111561129157fe5b91505b4262015180600287815481106112a657fe5b906000526020600020906007020160060160009054906101000a900463ffffffff1663ffffffff1601111561142757600285815481106112e257fe5b906000526020600020906007020160020160009054906101000a900473ffffffffffffffffffffffffffffffffffffffff1673ffffffffffffffffffffffffffffffffffffffff168473ffffffffffffffffffffffffffffffffffffffff1614806113b657506002858154811061135557fe5b906000526020600020906007020160010160009054906101000a900473ffffffffffffffffffffffffffffffffffffffff1673ffffffffffffffffffffffffffffffffffffffff168473ffffffffffffffffffffffffffffffffffffffff16145b156113e9576040518060c00160405280609781526020016145da6097913992506005808111156113e257fe5b9150611426565b6040518060400160405280601381526020017f4f66666572206e6f7420617661696c61626c6500000000000000000000000000815250925060ff91505b5b42620151806002026002878154811061143c57fe5b906000526020600020906007020160060160009054906101000a900463ffffffff1663ffffffff160111156114955760405180608001604052806053815260200161444460539139925060058081111561149257fe5b91505b828292509250509250929050565b6000839050601b8160ff1610156114bb57601b810190505b60018588886040516020016114d293929190613c37565b60405160208183030381529060405280519060200120858585604051600081526020016040526040516115089493929190613e05565b6020604051602081039080840390855afa15801561152a573d6000803e3d6000fd5b50505060206040510351600460006101000a81548173ffffffffffffffffffffffffffffffffffffffff021916908373ffffffffffffffffffffffffffffffffffffffff1602179055508460056000600460009054906101000a900473ffffffffffffffffffffffffffffffffffffffff1673ffffffffffffffffffffffffffffffffffffffff1673ffffffffffffffffffffffffffffffffffffffff1681526020019081526020016000205414611617576040517f08c379a000000000000000000000000000000000000000000000000000000000815260040161160e906140d2565b60405180910390fd5b600160056000600460009054906101000a900473ffffffffffffffffffffffffffffffffffffffff1673ffffffffffffffffffffffffffffffffffffffff1673ffffffffffffffffffffffffffffffffffffffff168152602001908152602001600020540160056000600460009054906101000a900473ffffffffffffffffffffffffffffffffffffffff1673ffffffffffffffffffffffffffffffffffffffff1673ffffffffffffffffffffffffffffffffffffffff16815260200190815260200160002081905550600060603073ffffffffffffffffffffffffffffffffffffffff16898960405161170c929190613be7565b6000604051808303816000865af19150503d8060008114611749576040519150601f19603f3d011682016040523d82523d6000602084013e61174e565b606091505b50809250819350505081819061179a576040517f08c379a00000000000000000000000000000000000000000000000000000000081526004016117919190613e9b565b60405180910390fd5b506000600460006101000a81548173ffffffffffffffffffffffffffffffffffffffff021916908373ffffffffffffffffffffffffffffffffffffffff160217905550505050505050505050565b600281815481106117f557fe5b9060005260206000209060070201600091509050806000018054600181600116156101000203166002900480601f0160208091040260200160405190810160405280929190818152602001828054600181600116156101000203166002900480156118a15780601f10611876576101008083540402835291602001916118a1565b820191906000526020600020905b81548152906001019060200180831161188457829003601f168201915b5050505050908060010160009054906101000a900473ffffffffffffffffffffffffffffffffffffffff16908060020160009054906101000a900473ffffffffffffffffffffffffffffffffffffffff16908060030154908060040154908060050154908060060160009054906101000a900463ffffffff16908060060160049054906101000a900460ff16905088565b6000600160028054905003905090565b60006060600191506040518060400160405280600881526020017f416c6c20636f6f6c000000000000000000000000000000000000000000000000815250905060058360ff1611156119d5576040518060400160405280600d81526020017f6e6f207375636820737461746500000000000000000000000000000000000000815250905060009150818191509150611fec565b60008360ff1660058111156119e657fe5b90506002805490508510611a3c57600092506040518060400160405280601281526020017f696e636f7272656374206f666665722049640000000000000000000000000000815250915082829250925050611fec565b600060028681548110611a4b57fe5b906000526020600020906007020160060160049054906101000a900460ff16905060006005811115611a7957fe5b816005811115611a8557fe5b1480611aa65750600580811115611a9857fe5b816005811115611aa457fe5b145b15611af4576040518060400160405280600f81526020017f4f666665722066696e616c697a656400000000000000000000000000000000008152509250600093508383935093505050611fec565b60016005811115611b0157fe5b816005811115611b0d57fe5b1415611cf357600093506040518060400160405280601281526020017f7472616e736974696f6e20696e76616c69640000000000000000000000000000815250925060026005811115611b5c57fe5b826005811115611b6857fe5b148015611bdf575060028681548110611b7d57fe5b906000526020600020906007020160010160009054906101000a900473ffffffffffffffffffffffffffffffffffffffff1673ffffffffffffffffffffffffffffffffffffffff168773ffffffffffffffffffffffffffffffffffffffff1614155b15611c2157600193506040518060400160405280600881526020017f416c6c20636f6f6c00000000000000000000000000000000000000000000000081525092505b60006005811115611c2e57fe5b826005811115611c3a57fe5b148015611cb0575060028681548110611c4f57fe5b906000526020600020906007020160010160009054906101000a900473ffffffffffffffffffffffffffffffffffffffff1673ffffffffffffffffffffffffffffffffffffffff168773ffffffffffffffffffffffffffffffffffffffff16145b15611cf257600193506040518060400160405280600881526020017f416c6c20636f6f6c00000000000000000000000000000000000000000000000081525092505b5b60026005811115611d0057fe5b816005811115611d0c57fe5b1415611dc75760028681548110611d1f57fe5b906000526020600020906007020160020160009054906101000a900473ffffffffffffffffffffffffffffffffffffffff1673ffffffffffffffffffffffffffffffffffffffff168773ffffffffffffffffffffffffffffffffffffffff161415611d8957611dc6565b600093506040518060400160405280601d81526020017f706572736f6e20696e76616c696420434f4c4c41544552414c495a454400000081525092505b5b60036005811115611dd457fe5b816005811115611de057fe5b1415611e9b5760028681548110611df357fe5b906000526020600020906007020160010160009054906101000a900473ffffffffffffffffffffffffffffffffffffffff1673ffffffffffffffffffffffffffffffffffffffff168773ffffffffffffffffffffffffffffffffffffffff161415611e5d57611e9a565b600093506040518060400160405280601581526020017f706572736f6e20696e76616c69642046494c4c4544000000000000000000000081525092505b5b60046005811115611ea857fe5b816005811115611eb457fe5b1415611fe35760028681548110611ec757fe5b906000526020600020906007020160010160009054906101000a900473ffffffffffffffffffffffffffffffffffffffff1673ffffffffffffffffffffffffffffffffffffffff168773ffffffffffffffffffffffffffffffffffffffff161480611f9b575060028681548110611f3a57fe5b906000526020600020906007020160020160009054906101000a900473ffffffffffffffffffffffffffffffffffffffff1673ffffffffffffffffffffffffffffffffffffffff168773ffffffffffffffffffffffffffffffffffffffff16145b15611fa557611fe2565b600093506040518060400160405280601781526020017f706572736f6e20696e76616c696420414343455054454400000000000000000081525092505b5b83839350935050505b935093915050565b600360009054906101000a900473ffffffffffffffffffffffffffffffffffffffff1681565b600660009054906101000a900473ffffffffffffffffffffffffffffffffffffffff1681565b60005481565b6000600180540390505b62030d405a118015612066575060028054905081105b156120f85742620151806002838154811061207d57fe5b906000526020600020906007020160060160009054906101000a900463ffffffff1663ffffffff160111156120ed576005600282815481106120bb57fe5b906000526020600020906007020160060160046101000a81548160ff021916908360058111156120e757fe5b02179055505b600181019050612050565b8060018190555050565b60003073ffffffffffffffffffffffffffffffffffffffff163373ffffffffffffffffffffffffffffffffffffffff1614612172576040517f08c379a000000000000000000000000000000000000000000000000000000000815260040161216990613f72565b60405180910390fd5b60405180610100016040528083815260200161218c610db2565b73ffffffffffffffffffffffffffffffffffffffff168152602001600073ffffffffffffffffffffffffffffffffffffffff168152602001858152602001848152602001600081526020014263ffffffff168152602001600160058111156121f057fe5b81525060026001600280549050038154811061220857fe5b906000526020600020906007020160008201518160000190805190602001906122329291906130cf565b5060208201518160010160006101000a81548173ffffffffffffffffffffffffffffffffffffffff021916908373ffffffffffffffffffffffffffffffffffffffff16021790555060408201518160020160006101000a81548173ffffffffffffffffffffffffffffffffffffffff021916908373ffffffffffffffffffffffffffffffffffffffff160217905550606082015181600301556080820151816004015560a0820151816005015560c08201518160060160006101000a81548163ffffffff021916908363ffffffff16021790555060e08201518160060160046101000a81548160ff0219169083600581111561232a57fe5b0217905550905050600660009054906101000a900473ffffffffffffffffffffffffffffffffffffffff1673ffffffffffffffffffffffffffffffffffffffff166323b872dd612378610db2565b30876002026040518463ffffffff1660e01b815260040161239b93929190613ca4565b602060405180830381600087803b1580156123b557600080fd5b505af11580156123c9573d6000803e3d6000fd5b505050506040513d601f19601f820116820180604052506123ed9190810190613356565b5083600282815481106123fc57fe5b9060005260206000209060070201600501819055509392505050565b600760009054906101000a900473ffffffffffffffffffffffffffffffffffffffff1681565b6002818154811061244b57fe5b906000526020600020906007020160060160009054906101000a900463ffffffff1663ffffffff1642111561277c57600073ffffffffffffffffffffffffffffffffffffffff166002828154811061249f57fe5b906000526020600020906007020160020160009054906101000a900473ffffffffffffffffffffffffffffffffffffffff1673ffffffffffffffffffffffffffffffffffffffff1614612527576040517f08c379a000000000000000000000000000000000000000000000000000000000815260040161251e90614112565b60405180910390fd5b61252f610db2565b73ffffffffffffffffffffffffffffffffffffffff166002828154811061255257fe5b906000526020600020906007020160010160009054906101000a900473ffffffffffffffffffffffffffffffffffffffff1673ffffffffffffffffffffffffffffffffffffffff1614156125db576040517f08c379a00000000000000000000000000000000000000000000000000000000081526004016125d290613fb2565b60405180910390fd5b600660009054906101000a900473ffffffffffffffffffffffffffffffffffffffff1673ffffffffffffffffffffffffffffffffffffffff166323b872dd612621610db2565b306002858154811061262f57fe5b9060005260206000209060070201600301546040518463ffffffff1660e01b815260040161265f93929190613ca4565b602060405180830381600087803b15801561267957600080fd5b505af115801561268d573d6000803e3d6000fd5b505050506040513d601f19601f820116820180604052506126b19190810190613356565b50600281815481106126bf57fe5b906000526020600020906007020160030154600282815481106126de57fe5b90600052602060002090600702016005015401600282815481106126fe57fe5b90600052602060002090600702016005018190555061271b610db2565b6002828154811061272857fe5b906000526020600020906007020160020160006101000a81548173ffffffffffffffffffffffffffffffffffffffff021916908373ffffffffffffffffffffffffffffffffffffffff1602179055506127b7565b6040517f08c379a00000000000000000000000000000000000000000000000000000000081526004016127ae90614092565b60405180910390fd5b5050565b600260058111156127c857fe5b8260058111156127d457fe5b14612814576040517f08c379a000000000000000000000000000000000000000000000000000000000815260040161280b90614032565b60405180910390fd5b6002818154811061282157fe5b906000526020600020906007020160020160009054906101000a900473ffffffffffffffffffffffffffffffffffffffff1673ffffffffffffffffffffffffffffffffffffffff16612871610db2565b73ffffffffffffffffffffffffffffffffffffffff16146128c7576040517f08c379a00000000000000000000000000000000000000000000000000000000081526004016128be90614012565b60405180910390fd5b5050565b600360058111156128d857fe5b8260058111156128e457fe5b14612924576040517f08c379a000000000000000000000000000000000000000000000000000000000815260040161291b90613ff2565b60405180910390fd5b6002818154811061293157fe5b906000526020600020906007020160010160009054906101000a900473ffffffffffffffffffffffffffffffffffffffff1673ffffffffffffffffffffffffffffffffffffffff16612981610db2565b73ffffffffffffffffffffffffffffffffffffffff16146129d7576040517f08c379a00000000000000000000000000000000000000000000000000000000081526004016129ce90614072565b60405180910390fd5b6003600282815481106129e657fe5b9060005260206000209060070201600301540260028281548110612a0657fe5b9060005260206000209060070201600501541015612a59576040517f08c379a0000000000000000000000000000000000000000000000000000000008152600401612a50906140f2565b60405180910390fd5b600660009054906101000a900473ffffffffffffffffffffffffffffffffffffffff1673ffffffffffffffffffffffffffffffffffffffff166323b872dd3060028481548110612aa557fe5b906000526020600020906007020160010160009054906101000a900473ffffffffffffffffffffffffffffffffffffffff1660028581548110612ae457fe5b9060005260206000209060070201600301546040518463ffffffff1660e01b8152600401612b1493929190613ca4565b602060405180830381600087803b158015612b2e57600080fd5b505af1158015612b42573d6000803e3d6000fd5b505050506040513d601f19601f82011682018060405250612b669190810190613356565b50600660009054906101000a900473ffffffffffffffffffffffffffffffffffffffff1673ffffffffffffffffffffffffffffffffffffffff166323b872dd3060028481548110612bb357fe5b906000526020600020906007020160020160009054906101000a900473ffffffffffffffffffffffffffffffffffffffff166002808681548110612bf357fe5b906000526020600020906007020160030154026040518463ffffffff1660e01b8152600401612c2493929190613ca4565b602060405180830381600087803b158015612c3e57600080fd5b505af1158015612c52573d6000803e3d6000fd5b505050506040513d601f19601f82011682018060405250612c769190810190613356565b505050565b60016005811115612c8857fe5b826005811115612c9457fe5b14158015612cb9575060006005811115612caa57fe5b826005811115612cb657fe5b14155b612cf8576040517f08c379a0000000000000000000000000000000000000000000000000000000008152600401612cef90613fd2565b60405180910390fd5b426201518060028381548110612d0a57fe5b906000526020600020906007020160060160009054906101000a900463ffffffff1663ffffffff160111612d73576040517f08c379a0000000000000000000000000000000000000000000000000000000008152600401612d6a90614052565b60405180910390fd5b600660009054906101000a900473ffffffffffffffffffffffffffffffffffffffff1673ffffffffffffffffffffffffffffffffffffffff166323b872dd30600360009054906101000a900473ffffffffffffffffffffffffffffffffffffffff1660028581548110612de257fe5b9060005260206000209060070201600501546040518463ffffffff1660e01b8152600401612e1293929190613ca4565b602060405180830381600087803b158015612e2c57600080fd5b505af1158015612e40573d6000803e3d6000fd5b505050506040513d601f19601f82011682018060405250612e649190810190613356565b50600060028281548110612e7457fe5b9060005260206000209060070201600501819055505050565b60016005811115612e9a57fe5b826005811115612ea657fe5b14612ee6576040517f08c379a0000000000000000000000000000000000000000000000000000000008152600401612edd906140b2565b60405180910390fd5b60028181548110612ef357fe5b906000526020600020906007020160010160009054906101000a900473ffffffffffffffffffffffffffffffffffffffff1673ffffffffffffffffffffffffffffffffffffffff16612f43610db2565b73ffffffffffffffffffffffffffffffffffffffff1614612f99576040517f08c379a0000000000000000000000000000000000000000000000000000000008152600401612f9090613f92565b60405180910390fd5b600660009054906101000a900473ffffffffffffffffffffffffffffffffffffffff1673ffffffffffffffffffffffffffffffffffffffff166323b872dd3060028481548110612fe557fe5b906000526020600020906007020160010160009054906101000a900473ffffffffffffffffffffffffffffffffffffffff166002858154811061302457fe5b9060005260206000209060070201600501546040518463ffffffff1660e01b815260040161305493929190613ca4565b602060405180830381600087803b15801561306e57600080fd5b505af1158015613082573d6000803e3d6000fd5b505050506040513d601f19601f820116820180604052506130a69190810190613356565b506000600282815481106130b657fe5b9060005260206000209060070201600501819055505050565b828054600181600116156101000203166002900490600052602060002090601f016020900481019282601f1061311057805160ff191683800117855561313e565b8280016001018555821561313e579182015b8281111561313d578251825591602001919060010190613122565b5b50905061314b919061314f565b5090565b61317191905b8082111561316d576000816000905550600101613155565b5090565b90565b600061318082356142de565b905092915050565b600061319482516142f0565b905092915050565b60006131a882356142fc565b905092915050565b60008083601f8401126131c257600080fd5b8235905067ffffffffffffffff8111156131db57600080fd5b6020830191508360018202830111156131f357600080fd5b9250929050565b600082601f83011261320b57600080fd5b813561321e613219826141b1565b614184565b9150808252602083016020830185838301111561323a57600080fd5b6132458382846143bb565b50505092915050565b600082601f83011261325f57600080fd5b813561327261326d826141dd565b614184565b9150808252602083016020830185838301111561328e57600080fd5b6132998382846143bb565b50505092915050565b60006132ae8235614326565b905092915050565b60006132c28251614326565b905092915050565b60006132d68235614330565b905092915050565b6000602082840312156132f057600080fd5b60006132fe84828501613174565b91505092915050565b60008060006060848603121561331c57600080fd5b600061332a86828701613174565b935050602061333b868287016132a2565b925050604061334c868287016132ca565b9150509250925092565b60006020828403121561336857600080fd5b600061337684828501613188565b91505092915050565b60008060008060008060a0878903121561339857600080fd5b600087013567ffffffffffffffff8111156133b257600080fd5b6133be89828a016131b0565b965096505060206133d189828a016132a2565b94505060406133e289828a016132ca565b93505060606133f389828a0161319c565b925050608061340489828a0161319c565b9150509295509295509295565b6000806040838503121561342457600080fd5b600083013567ffffffffffffffff81111561343e57600080fd5b61344a858286016131fa565b925050602061345b85828601613174565b9150509250929050565b60006020828403121561347757600080fd5b6000613485848285016132a2565b91505092915050565b6000602082840312156134a057600080fd5b60006134ae848285016132b6565b91505092915050565b600080604083850312156134ca57600080fd5b60006134d8858286016132a2565b92505060206134e985828601613174565b9150509250929050565b60008060006060848603121561350857600080fd5b6000613516868287016132a2565b9350506020613527868287016132a2565b925050604084013567ffffffffffffffff81111561354457600080fd5b6135508682870161324e565b9150509250925092565b6000806040838503121561356d57600080fd5b600061357b858286016132a2565b925050602061358c858286016132ca565b9150509250929050565b6000806000606084860312156135ab57600080fd5b60006135b9868287016132ca565b93505060206135ca8682870161319c565b92505060406135db8682870161319c565b9150509250925092565b6135ee81614251565b82525050565b6135fd81614263565b82525050565b61360c8161426f565b82525050565b61362361361e8261426f565b6143fd565b82525050565b6000613635838561422a565b93506136428385846143bb565b82840190509392505050565b600061365982614209565b613663818561422a565b93506136738185602086016143ca565b80840191505092915050565b6136888161433d565b82525050565b61369781614361565b82525050565b6136a681614385565b82525050565b6136b58161428d565b82525050565b6136c481614397565b82525050565b6136d3816143a9565b82525050565b60006136e48261421f565b6136ee8185614235565b93506136fe8185602086016143ca565b61370781614411565b840191505092915050565b600061371d82614214565b6137278185614235565b93506137378185602086016143ca565b61374081614411565b840191505092915050565b6000613758601983614235565b91507f63616e2062652063616c6c6564206f6e6c7920622073656c66000000000000006000830152602082019050919050565b6000613798602283614235565b91507f4f6e6c79206f6666657220637261746f722063616e2063616e63656c206f666660008301527f65720000000000000000000000000000000000000000000000000000000000006020830152604082019050919050565b60006137fe601a83614235565b91507f74616b65722063616e6e6f7420657175616c2063726561746f720000000000006000830152602082019050919050565b600061383e601d83614235565b91507f5472616e736974696f6e20746f2054494d454f555420696e76616c69640000006000830152602082019050919050565b600061387e600283614246565b91507f19010000000000000000000000000000000000000000000000000000000000006000830152600282019050919050565b60006138be601e83614235565b91507f5472616e736974696f6e20746f20414343455054454420696e76616c696400006000830152602082019050919050565b60006138fe602b83614235565b91507f4f6e6c792044414920526563697069656e74202863726561746f72292063616e60008301527f2066696c6c206f726465720000000000000000000000000000000000000000006020830152604082019050919050565b6000613964601c83614235565b91507f5472616e736974696f6e20746f2046494c4c454420696e76616c6964000000006000830152602082019050919050565b60006139a4601383614235565b91507f54696d65206e6f742070617373656420796574000000000000000000000000006000830152602082019050919050565b60006139e4602a83614235565b91507f4f6e6c79204441492053656e646572202863726561746f72292063616e20616360008301527f63657074206f72646572000000000000000000000000000000000000000000006020830152604082019050919050565b6000613a4a602483614235565b91507f5472616e736974696f6e20746f20434f4c4c41544552414c495a454420696e7660008301527f616c6964000000000000000000000000000000000000000000000000000000006020830152604082019050919050565b6000613ab0601a83614235565b91507f5472616e736974696f6e20746f204e4f4e4520696e76616c69640000000000006000830152602082019050919050565b6000613af0600d83614235565b91507f6e6f6e636520696e76616c6964000000000000000000000000000000000000006000830152602082019050919050565b6000613b30601c83614235565b91507f5061796f75747320626967676572207468616e206465706f73697473000000006000830152602082019050919050565b6000613b70601583614235565b91507f74616b6572206d757374206e6f742062652073657400000000000000000000006000830152602082019050919050565b613bac816142b7565b82525050565b613bc3613bbe826142b7565b614407565b82525050565b613bd2816142c1565b82525050565b613be1816142d1565b82525050565b6000613bf4828486613629565b91508190509392505050565b6000613c0b82613871565b9150613c178285613612565b602082019150613c278284613612565b6020820191508190509392505050565b6000613c438286613bb2565b602082019150613c54828486613629565b9150819050949350505050565b6000613c6d8285613bb2565b602082019150613c7d828461364e565b91508190509392505050565b6000602082019050613c9e60008301846135e5565b92915050565b6000606082019050613cb960008301866135e5565b613cc660208301856135e5565b613cd36040830184613ba3565b949350505050565b600061010082019050613cf1600083018b6135e5565b613cfe602083018a6135e5565b613d0b6040830189613ba3565b613d1860608301886136bb565b613d2560808301876135f4565b613d3260a0830186613bd8565b613d3f60c0830185613603565b613d4c60e0830184613603565b9998505050505050505050565b6000604082019050613d6e60008301856135f4565b8181036020830152613d8081846136d9565b90509392505050565b6000602082019050613d9e6000830184613603565b92915050565b600060c082019050613db96000830189613603565b613dc660208301886135e5565b613dd360408301876135e5565b613de06060830186613ba3565b613ded60808301856136ca565b613dfa60a08301846135f4565b979650505050505050565b6000608082019050613e1a6000830187613603565b613e276020830186613bd8565b613e346040830185613603565b613e416060830184613603565b95945050505050565b6000602082019050613e5f600083018461367f565b92915050565b6000602082019050613e7a600083018461368e565b92915050565b6000602082019050613e9560008301846136ac565b92915050565b60006020820190508181036000830152613eb581846136d9565b905092915050565b60006040820190508181036000830152613ed781856136d9565b9050613ee66020830184613bd8565b9392505050565b6000610100820190508181036000830152613f08818b613712565b9050613f17602083018a6135e5565b613f2460408301896135e5565b613f316060830188613ba3565b613f3e6080830187613ba3565b613f4b60a0830186613ba3565b613f5860c0830185613bc9565b613f6560e083018461369d565b9998505050505050505050565b60006020820190508181036000830152613f8b8161374b565b9050919050565b60006020820190508181036000830152613fab8161378b565b9050919050565b60006020820190508181036000830152613fcb816137f1565b9050919050565b60006020820190508181036000830152613feb81613831565b9050919050565b6000602082019050818103600083015261400b816138b1565b9050919050565b6000602082019050818103600083015261402b816138f1565b9050919050565b6000602082019050818103600083015261404b81613957565b9050919050565b6000602082019050818103600083015261406b81613997565b9050919050565b6000602082019050818103600083015261408b816139d7565b9050919050565b600060208201905081810360008301526140ab81613a3d565b9050919050565b600060208201905081810360008301526140cb81613aa3565b9050919050565b600060208201905081810360008301526140eb81613ae3565b9050919050565b6000602082019050818103600083015261410b81613b23565b9050919050565b6000602082019050818103600083015261412b81613b63565b9050919050565b60006020820190506141476000830184613ba3565b92915050565b60006060820190506141626000830186613ba3565b61416f6020830185613bd8565b61417c6040830184613bd8565b949350505050565b6000604051905081810181811067ffffffffffffffff821117156141a757600080fd5b8060405250919050565b600067ffffffffffffffff8211156141c857600080fd5b601f19601f8301169050602081019050919050565b600067ffffffffffffffff8211156141f457600080fd5b601f19601f8301169050602081019050919050565b600081519050919050565b600081519050919050565b600081519050919050565b600081905092915050565b600082825260208201905092915050565b600081905092915050565b600061425c82614297565b9050919050565b60008115159050919050565b6000819050919050565b60006006821061428557fe5b819050919050565b6000819050919050565b600073ffffffffffffffffffffffffffffffffffffffff82169050919050565b6000819050919050565b600063ffffffff82169050919050565b600060ff82169050919050565b60006142e982614306565b9050919050565b60008115159050919050565b6000819050919050565b600073ffffffffffffffffffffffffffffffffffffffff82169050919050565b6000819050919050565b600060ff82169050919050565b60006143488261434f565b9050919050565b600061435a82614297565b9050919050565b600061436c82614373565b9050919050565b600061437e82614297565b9050919050565b600061439082614279565b9050919050565b60006143a2826142b7565b9050919050565b60006143b4826142d1565b9050919050565b82818337600083830152505050565b60005b838110156143e85780820151818401526020810190506143cd565b838111156143f7576000848401525b50505050565b6000819050919050565b6000819050919050565b6000601f19601f830116905091905056fe496620596f75206861766520676f7420796f757220636173682c2061636365707454686973204f7264657220776173206e6f74207375636365737366756c2c2070726f6365656420746f2073656e6420616c6c206465706f7369747320746f20426974636f696e73466f7256656e657a75656c61436f6e67726174756c6174696f6e2c20796f7572206465706f7369742073686f756c64206265206261636b20696e20796f75722077616c6c657420616e64206361736820696e20796f757220706f636b65745761697420666f72206d656574696e6720706f696e7420696e737472756374696f6e73507574207365637572697479206465706f73697420284441492920696e206f7264657220746f2074616b652074686174206f72646572436f6e67726174756c6174696f6e2c20796f7572206465706f73697420616e64207061796d656e742073686f756c6420626520696e20796f75722077616c6c6574446f20596f752077616e7420746f2063616e63656c2074686973206f666665723f50726570617265206361736820616e64206465736372696265206d656574696e6720706f696e7420746f20796f757220636c69656e74556e666f7274756e6174656c6c792c20796f7520646964206e6f74206d616e61676520746f2066696e616c697a65206f7264657220696e2074696d652c20636c69636b2050726f6365656420746f2073656e6420616c6c20796f7572207061796d656e747320616e64206465706f736974732077696c6c2062652073656e6420746f20426974636f696e73466f7256656e657a75656c61a265627a7a72305820d0a4256c4e6092fc177fcba2dcefc3eb360236031f964a1d844735b23eea22bd6c6578706572696d656e74616cf50037",
  "source": "pragma solidity ^0.5.7;\npragma experimental ABIEncoderV2;\n\nimport \"@openzeppelin/contracts/token/ERC20/IERC20.sol\";\nimport \"./Permitable.sol\";\n\ncontract Market {\n    uint256 public lastClearedOfferIndex;\n    uint256 public lastTimeOutedOffer;\n    Offer[] public offers;\n    uint256 public constant OFFER_TIMEOUT = 24 * 3600;\n    bytes32 public constant PERMIT_TYPEHASH = 0xea2aa0a1be11a07ed86d755c93467f4f82362b452371d1ba94d1715123511acb;\n    address public timeOutBeneficiary;\n    address private tempSender;\n    mapping(address => uint256) nonces;\n    IERC20 public daiToken;\n    Permitable public dai;\n    bytes32 public DOMAIN_SEPARATOR;\n\n    constructor(address _relayerHub, address _dai, address _bfv) public {\n        daiToken = IERC20(_dai);\n        dai = Permitable(_dai);\n        DOMAIN_SEPARATOR = Permitable(_dai).DOMAIN_SEPARATOR();\n\n    }\n\n    enum OfferState {\n        NONE,\n        SUGGESTED,\n        COLLATERALIZED,\n        FILLED,\n        ACCEPTED,\n        TIMEOUTED\n    }\n\n    struct Offer {\n        string destCurrency;\n        address creator;\n        address taker;\n        uint256 sumIn;\n        uint256 sumOut;\n        uint256 totalDeposited;\n        uint32 timeStarted;\n        OfferState status;\n    }\n\n    modifier onlySelf {\n        require(msg.sender == address(this), \"can be called only b self\");\n        _;\n    }\n\n    function getSender() public view returns (address) {\n        return tempSender;\n    }\n\n    function permit(uint8 v, bytes32 r, bytes32 s) public onlySelf {\n        uint8 v2 = v;\n        if (v2 < 27) {\n            v2 = v2 + 27;\n        }\n        dai.permit(\n            getSender(),\n            address(this),\n            dai.nonces(getSender()),\n            0,\n            true,\n            v2,\n            r,\n            s\n        );\n    }\n\n    function relayCall(\n        bytes calldata data,\n        uint256 nonce,\n        uint8 v,\n        bytes32 r,\n        bytes32 s\n    ) external {\n        uint8 v2 = v;\n        if (v2 < 27) {\n            v2 = v2 + 27;\n        }\n        tempSender = ecrecover(\n            keccak256(abi.encodePacked(nonce, data)),\n            v,\n            r,\n            s\n        );\n        require(nonces[tempSender] == nonce, \"nonce invalid\");\n        nonces[tempSender] = nonces[tempSender] + 1;\n        bool status;\n        bytes memory message;\n        (status, message) = address(this).call(data);\n        require(status, string(message));\n        tempSender = address(0);\n    }\n\n    function generateDigest(address holder) public view returns (bytes32) {\n        bytes32 digest = keccak256(\n            abi.encodePacked(\n                \"\\x19\\x01\",\n                DOMAIN_SEPARATOR,\n                keccak256(\n                    abi.encode(\n                        PERMIT_TYPEHASH,\n                        holder,\n                        address(this),\n                        dai.nonces(holder),\n                        0,\n                        true\n                    )\n                )\n            )\n        );\n        return digest;\n    }\n\n    function generateMethodCallDigest(bytes memory data, address user)\n        public\n        view\n        returns (bytes32)\n    {\n        return keccak256(abi.encodePacked(nonces[user], data));\n    }\n\n    function addOffer(\n        uint256 sourceAmount,\n        uint256 destAmount,\n        string memory destCurrency\n    ) public onlySelf returns (uint256 offerId) {\n        offers[offers.length - 1] = Offer(\n            destCurrency,\n            getSender(),\n            address(0),\n            sourceAmount,\n            destAmount,\n            0,\n            uint32(now),\n            OfferState.SUGGESTED\n        );\n        daiToken.transferFrom(getSender(), address(this), 2 * sourceAmount);\n        offers[offerId].totalDeposited = sourceAmount;\n    }\n\n    function canMove(address sender, uint256 offerId, uint8 destinationStateInt)\n        public\n        view\n        returns (bool result, string memory reason)\n    {\n        result = true;\n        reason = \"All cool\";\n        if (destinationStateInt > 5) {\n            reason = \"no such state\";\n            result = false;\n            return (result, reason);\n        }\n        OfferState destinationState = OfferState(destinationStateInt);\n        if (offerId >= offers.length) {\n            result = false;\n            reason = \"incorrect offer Id\";\n            return (result, reason);\n        }\n        OfferState state = offers[offerId].status;\n        if (state == OfferState.NONE || state == OfferState.TIMEOUTED) {\n            reason = \"Offer finalized\";\n            result = false;\n            return (result, reason);\n        }\n        if (state == OfferState.SUGGESTED) {\n            result = false;\n            reason = \"transition invalid\";\n            if (\n                destinationState == OfferState.COLLATERALIZED &&\n                sender != offers[offerId].creator\n            ) {\n                result = true;\n                reason = \"All cool\";\n            }\n            if (\n                destinationState == OfferState.NONE &&\n                sender == offers[offerId].creator\n            ) {\n                result = true;\n                reason = \"All cool\";\n            }\n        }\n        if (state == OfferState.COLLATERALIZED) {\n            if (sender == offers[offerId].taker) {} else {\n                result = false;\n                reason = \"person invalid COLLATERALIZED\";\n            }\n        }\n        if (state == OfferState.FILLED) {\n            if (sender == offers[offerId].creator) {} else {\n                result = false;\n                reason = \"person invalid FILLED\";\n            }\n        }\n        if (state == OfferState.ACCEPTED) {\n            if (\n                sender == offers[offerId].creator ||\n                sender == offers[offerId].taker\n            ) {} else {\n                result = false;\n                reason = \"person invalid ACCEPTED\";\n            }\n        }\n\n        return (result, reason);\n    }\n\n    function nextMove(uint256 offerId, address sender)\n        public\n        view\n        returns (string memory message, uint8 step)\n    {\n        OfferState state = offers[offerId].status;\n        message = \"Offer not available\";\n        step = 255;\n        if (state == OfferState.SUGGESTED) {\n            if (sender == offers[offerId].creator) {\n                message = \"Do You want to cancel this offer?\";\n                step = uint8(OfferState.NONE);\n            } else {\n                message = \"Put security deposit (DAI) in order to take that order\";\n                step = uint8(OfferState.COLLATERALIZED);\n            }\n        }\n        if (state == OfferState.COLLATERALIZED) {\n            if (sender == offers[offerId].taker) {\n                message = \"Prepare cash and describe meeting point to your client\";\n                step = uint8(OfferState.FILLED);\n            } else if (sender == offers[offerId].creator) {\n                message = \"Wait for meeting point instructions\";\n            }\n        }\n        if (state == OfferState.FILLED) {\n            if (sender == offers[offerId].creator) {\n                message = \"If You have got your cash, accept\";\n            }\n            step = uint8(OfferState.ACCEPTED);\n        }\n        if (state == OfferState.ACCEPTED) {\n            if (sender == offers[offerId].taker) {\n                message = \"Congratulation, your deposit and payment should be in your wallet\";\n            } else if (sender == offers[offerId].creator) {\n                message = \"Congratulation, your deposit should be back in your wallet and cash in your pocket\";\n            }\n            step = uint8(OfferState.NONE);\n        }\n        if (offers[offerId].timeStarted + OFFER_TIMEOUT > now) {\n            if (\n                sender == offers[offerId].taker ||\n                sender == offers[offerId].creator\n            ) {\n                message = \"Unfortunatelly, you did not manage to finalize order in time, click Proceed to send all your payments and deposits will be send to BitcoinsForVenezuela\";\n                step = uint8(OfferState.TIMEOUTED);\n            } else {\n                message = \"Offer not available\";\n                step = 255;\n            }\n        }\n        if (offers[offerId].timeStarted + 2 * OFFER_TIMEOUT > now) {\n            message = \"This Order was not successful, proceed to send all deposits to BitcoinsForVenezuela\";\n            step = uint8(OfferState.TIMEOUTED);\n        }\n\n        return (message, step);\n    }\n\n    function move(uint256 offerId, uint8 destinationStateInt) public {\n        OfferState destinationState = OfferState(destinationStateInt);\n        OfferState state = offers[offerId].status;\n        if (destinationState == OfferState.COLLATERALIZED) {\n            emit ProcessOffer(\n                offers[offerId].taker,\n                offers[offerId].creator,\n                offerId,\n                destinationStateInt,\n                uint8(state)\n            );\n            processToCollateralized(state, offerId);\n        }\n        if (destinationState == OfferState.FILLED) {\n            emit ProcessOffer(\n                offers[offerId].taker,\n                offers[offerId].creator,\n                offerId,\n                destinationStateInt,\n                uint8(state)\n            );\n            processToFilled(state, offerId);\n        }\n        if (destinationState == OfferState.ACCEPTED) {\n            emit ProcessOffer(\n                offers[offerId].taker,\n                offers[offerId].creator,\n                offerId,\n                destinationStateInt,\n                uint8(state)\n            );\n            processToAccepted(state, offerId);\n        }\n        if (destinationState == OfferState.TIMEOUTED) {\n            emit ProcessOffer(\n                offers[offerId].taker,\n                offers[offerId].creator,\n                offerId,\n                destinationStateInt,\n                uint8(state)\n            );\n            processToTimeouted(state, offerId);\n        }\n        if (destinationState == OfferState.NONE) {\n            emit ProcessOffer(\n                offers[offerId].taker,\n                offers[offerId].creator,\n                offerId,\n                destinationStateInt,\n                uint8(state)\n            );\n            processToNone(state, offerId);\n        }\n        offers[offerId].status = destinationState;\n\n    }\n\n    function processToNone(OfferState state, uint256 offerId) private {\n        require(state == OfferState.SUGGESTED, \"Transition to NONE invalid\");\n        require(\n            getSender() == offers[offerId].creator,\n            \"Only offer crator can cancel offer\"\n        );\n        daiToken.transferFrom(\n            address(this),\n            offers[offerId].creator,\n            offers[offerId].totalDeposited\n        );\n        offers[offerId].totalDeposited = 0;\n    }\n\n    function processToTimeouted(OfferState state, uint256 offerId) private {\n        require(\n            state != OfferState.SUGGESTED && state != OfferState.NONE,\n            \"Transition to TIMEOUT invalid\"\n        );\n        require(\n            offers[offerId].timeStarted + OFFER_TIMEOUT > block.timestamp,\n            \"Time not passed yet\"\n        );\n        daiToken.transferFrom(\n            address(this),\n            timeOutBeneficiary,\n            offers[offerId].totalDeposited\n        );\n        offers[offerId].totalDeposited = 0;\n    }\n\n    function processToAccepted(OfferState state, uint256 offerId) private {\n        require(state == OfferState.FILLED, \"Transition to ACCEPTED invalid\");\n        require(\n            getSender() == offers[offerId].creator,\n            \"Only DAI Sender (creator) can accept order\"\n        );\n        require(\n            offers[offerId].totalDeposited >= offers[offerId].sumIn * 3,\n            \"Payouts bigger than deposits\"\n        );\n        daiToken.transferFrom(\n            address(this),\n            offers[offerId].creator,\n            offers[offerId].sumIn\n        );\n        daiToken.transferFrom(\n            address(this),\n            offers[offerId].taker,\n            offers[offerId].sumIn * 2\n        );\n    }\n\n    function processToFilled(OfferState state, uint256 offerId) private {\n        require(\n            state == OfferState.COLLATERALIZED,\n            \"Transition to FILLED invalid\"\n        );\n        require(\n            getSender() == offers[offerId].taker,\n            \"Only DAI Recipient (creator) can fill order\"\n        );\n\n    }\n\n    function processToCollateralized(OfferState state, uint256 offerId)\n        private\n    {\n        if (now > offers[offerId].timeStarted) {\n            require(\n                offers[offerId].taker == address(0),\n                \"taker must not be set\"\n            );\n            require(\n                offers[offerId].creator != getSender(),\n                \"taker cannot equal creator\"\n            );\n            daiToken.transferFrom(\n                getSender(),\n                address(this),\n                offers[offerId].sumIn\n            );\n\n            offers[offerId].totalDeposited =\n                offers[offerId].totalDeposited +\n                offers[offerId].sumIn;\n\n            offers[offerId].taker = getSender();\n        } else {\n            revert(\"Transition to COLLATERALIZED invalid\");\n        }\n    }\n\n    function getLastOfferIndex() public view returns (int256) {\n        return (int256(offers.length)) - 1;\n    }\n\n    function houseKeeping() public {\n        uint256 i = lastTimeOutedOffer - 1;\n        while (gasleft() > 200000 && i < offers.length) {\n            if (offers[i].timeStarted + OFFER_TIMEOUT > now) {\n                offers[i].status = OfferState.TIMEOUTED;\n            }\n\n            i = i + 1;\n        }\n        lastTimeOutedOffer = i;\n    }\n\n    event ProcessOffer(\n        address indexed taker,\n        address indexed creator,\n        uint256 offerId,\n        uint8 destinationStatus,\n        uint8 sourceStatus\n    );\n}\n",
  "sourcePath": "/home/adam/Desktop/Blockchain/private/EthMarket/contracts/Market.sol",
  "compiler": {
    "name": "solc",
    "version": "0.5.7+commit.6da8b019.Emscripten.clang"
  },
  "schemaVersion": "3.0.23",
  "updatedAt": "2020-03-20T11:59:56.870Z",
  "devdoc": {
    "methods": {}
  },
  "userdoc": {
    "methods": {}
  }
}