{
  "contractName": "Market",
  "abi": [
    {
      "constant": true,
      "inputs": [],
      "name": "PERMIT_TYPEHASH",
      "outputs": [
        {
          "name": "",
          "type": "bytes32"
        }
      ],
      "payable": false,
      "stateMutability": "view",
      "type": "function"
    },
    {
      "constant": true,
      "inputs": [],
      "name": "DOMAIN_SEPARATOR",
      "outputs": [
        {
          "name": "",
          "type": "bytes32"
        }
      ],
      "payable": false,
      "stateMutability": "view",
      "type": "function"
    },
    {
      "constant": true,
      "inputs": [],
      "name": "OFFER_TIMEOUT",
      "outputs": [
        {
          "name": "",
          "type": "uint256"
        }
      ],
      "payable": false,
      "stateMutability": "view",
      "type": "function"
    },
    {
      "constant": true,
      "inputs": [],
      "name": "lastTimeOutedOffer",
      "outputs": [
        {
          "name": "",
          "type": "uint256"
        }
      ],
      "payable": false,
      "stateMutability": "view",
      "type": "function"
    },
    {
      "constant": true,
      "inputs": [
        {
          "name": "",
          "type": "uint256"
        }
      ],
      "name": "offers",
      "outputs": [
        {
          "name": "destCurrency",
          "type": "string"
        },
        {
          "name": "creator",
          "type": "address"
        },
        {
          "name": "taker",
          "type": "address"
        },
        {
          "name": "sumIn",
          "type": "uint256"
        },
        {
          "name": "sumOut",
          "type": "uint256"
        },
        {
          "name": "totalDeposited",
          "type": "uint256"
        },
        {
          "name": "timeStarted",
          "type": "uint32"
        },
        {
          "name": "status",
          "type": "uint8"
        }
      ],
      "payable": false,
      "stateMutability": "view",
      "type": "function"
    },
    {
      "constant": true,
      "inputs": [],
      "name": "timeOutBeneficiary",
      "outputs": [
        {
          "name": "",
          "type": "address"
        }
      ],
      "payable": false,
      "stateMutability": "view",
      "type": "function"
    },
    {
      "constant": true,
      "inputs": [],
      "name": "daiToken",
      "outputs": [
        {
          "name": "",
          "type": "address"
        }
      ],
      "payable": false,
      "stateMutability": "view",
      "type": "function"
    },
    {
      "constant": true,
      "inputs": [],
      "name": "lastClearedOfferIndex",
      "outputs": [
        {
          "name": "",
          "type": "uint256"
        }
      ],
      "payable": false,
      "stateMutability": "view",
      "type": "function"
    },
    {
      "constant": true,
      "inputs": [],
      "name": "dai",
      "outputs": [
        {
          "name": "",
          "type": "address"
        }
      ],
      "payable": false,
      "stateMutability": "view",
      "type": "function"
    },
    {
      "inputs": [
        {
          "name": "_relayerHub",
          "type": "address"
        },
        {
          "name": "_dai",
          "type": "address"
        },
        {
          "name": "_bfv",
          "type": "address"
        }
      ],
      "payable": false,
      "stateMutability": "nonpayable",
      "type": "constructor"
    },
    {
      "anonymous": false,
      "inputs": [
        {
          "indexed": true,
          "name": "taker",
          "type": "address"
        },
        {
          "indexed": true,
          "name": "creator",
          "type": "address"
        },
        {
          "indexed": true,
          "name": "offerId",
          "type": "uint256"
        },
        {
          "indexed": false,
          "name": "destinationStatus",
          "type": "uint8"
        },
        {
          "indexed": false,
          "name": "sourceStatus",
          "type": "uint8"
        }
      ],
      "name": "ProcessOffer",
      "type": "event"
    },
    {
      "constant": true,
      "inputs": [],
      "name": "getSender",
      "outputs": [
        {
          "name": "",
          "type": "address"
        }
      ],
      "payable": false,
      "stateMutability": "view",
      "type": "function"
    },
    {
      "constant": false,
      "inputs": [
        {
          "name": "v",
          "type": "uint8"
        },
        {
          "name": "r",
          "type": "bytes32"
        },
        {
          "name": "s",
          "type": "bytes32"
        }
      ],
      "name": "permit",
      "outputs": [],
      "payable": false,
      "stateMutability": "nonpayable",
      "type": "function"
    },
    {
      "constant": false,
      "inputs": [
        {
          "name": "data",
          "type": "bytes"
        },
        {
          "name": "nonce",
          "type": "uint256"
        },
        {
          "name": "v",
          "type": "uint8"
        },
        {
          "name": "r",
          "type": "bytes32"
        },
        {
          "name": "s",
          "type": "bytes32"
        }
      ],
      "name": "relayCall",
      "outputs": [],
      "payable": false,
      "stateMutability": "nonpayable",
      "type": "function"
    },
    {
      "constant": true,
      "inputs": [
        {
          "name": "holder",
          "type": "address"
        }
      ],
      "name": "generateDigest",
      "outputs": [
        {
          "name": "",
          "type": "bytes32"
        }
      ],
      "payable": false,
      "stateMutability": "view",
      "type": "function"
    },
    {
      "constant": true,
      "inputs": [
        {
          "name": "data",
          "type": "bytes"
        },
        {
          "name": "user",
          "type": "address"
        }
      ],
      "name": "generateMethodCallDigest",
      "outputs": [
        {
          "name": "digest",
          "type": "bytes32"
        },
        {
          "name": "nonce",
          "type": "uint256"
        }
      ],
      "payable": false,
      "stateMutability": "view",
      "type": "function"
    },
    {
      "constant": false,
      "inputs": [
        {
          "name": "sourceAmount",
          "type": "uint256"
        },
        {
          "name": "destAmount",
          "type": "uint256"
        },
        {
          "name": "destCurrency",
          "type": "string"
        }
      ],
      "name": "addOffer",
      "outputs": [
        {
          "name": "offerId",
          "type": "uint256"
        }
      ],
      "payable": false,
      "stateMutability": "nonpayable",
      "type": "function"
    },
    {
      "constant": true,
      "inputs": [
        {
          "name": "sender",
          "type": "address"
        },
        {
          "name": "offerId",
          "type": "uint256"
        },
        {
          "name": "destinationStateInt",
          "type": "uint8"
        }
      ],
      "name": "canMove",
      "outputs": [
        {
          "name": "result",
          "type": "bool"
        },
        {
          "name": "reason",
          "type": "string"
        }
      ],
      "payable": false,
      "stateMutability": "view",
      "type": "function"
    },
    {
      "constant": true,
      "inputs": [
        {
          "name": "offerId",
          "type": "uint256"
        },
        {
          "name": "sender",
          "type": "address"
        }
      ],
      "name": "nextMove",
      "outputs": [
        {
          "name": "message",
          "type": "string"
        },
        {
          "name": "step",
          "type": "uint8"
        }
      ],
      "payable": false,
      "stateMutability": "view",
      "type": "function"
    },
    {
      "constant": false,
      "inputs": [
        {
          "name": "offerId",
          "type": "uint256"
        },
        {
          "name": "destinationStateInt",
          "type": "uint8"
        }
      ],
      "name": "move",
      "outputs": [],
      "payable": false,
      "stateMutability": "nonpayable",
      "type": "function"
    },
    {
      "constant": true,
      "inputs": [],
      "name": "getLastOfferIndex",
      "outputs": [
        {
          "name": "",
          "type": "int256"
        }
      ],
      "payable": false,
      "stateMutability": "view",
      "type": "function"
    },
    {
      "constant": false,
      "inputs": [],
      "name": "houseKeeping",
      "outputs": [],
      "payable": false,
      "stateMutability": "nonpayable",
      "type": "function"
    }
  ],
  "bytecode": "0x60806040523480156200001157600080fd5b5060405160608062004a49833981018060405262000033919081019062000172565b81600660006101000a81548173ffffffffffffffffffffffffffffffffffffffff021916908373ffffffffffffffffffffffffffffffffffffffff16021790555081600760006101000a81548173ffffffffffffffffffffffffffffffffffffffff021916908373ffffffffffffffffffffffffffffffffffffffff1602179055508173ffffffffffffffffffffffffffffffffffffffff16633644e5156040518163ffffffff1660e01b815260040160206040518083038186803b158015620000fc57600080fd5b505afa15801562000111573d6000803e3d6000fd5b505050506040513d601f19601f82011682018060405250620001379190810190620001c8565b60088190555050505062000232565b6000620001548251620001f4565b905092915050565b60006200016a825162000208565b905092915050565b6000806000606084860312156200018857600080fd5b6000620001988682870162000146565b9350506020620001ab8682870162000146565b9250506040620001be8682870162000146565b9150509250925092565b600060208284031215620001db57600080fd5b6000620001eb848285016200015c565b91505092915050565b6000620002018262000212565b9050919050565b6000819050919050565b600073ffffffffffffffffffffffffffffffffffffffff82169050919050565b61480780620002426000396000f3fe608060405234801561001057600080fd5b506004361061012c5760003560e01c80637114bddc116100ad578063be22f54611610071578063be22f54614610351578063d2b39c241461036f578063d9fa93351461038d578063ea7cbfe414610397578063f4b9fa75146103c75761012c565b80637114bddc146102915780638a72ea6a146102ad5780638f9cfe70146102e45780639ce49a5b14610302578063b8766760146103335761012c565b80633644e515116100f45780633644e515146101e857806337d7cfbe146102065780633e24c6f2146102245780635e01eb5a146102425780635ffa0322146102605761012c565b806315a17e6a146101315780631d05d7501461014d57806326f3d41b1461017e5780632d3e0851146101ae57806330adf81f146101ca575b600080fd5b61014b600480360361014691908101906136d8565b6103e5565b005b61016760048036036101629190810190613553565b6105c6565b604051610175929190613f47565b60405180910390f35b61019860048036036101939190810190613420565b610682565b6040516101a59190613ecb565b60405180910390f35b6101c860048036036101c3919081019061369c565b6107ba565b005b6101d2610dbe565b6040516101df9190613ecb565b60405180910390f35b6101f0610de5565b6040516101fd9190613ecb565b60405180910390f35b61020e610deb565b60405161021b919061429d565b60405180910390f35b61022c610df2565b604051610239919061429d565b60405180910390f35b61024a610df8565b6040516102579190613dcb565b60405180910390f35b61027a600480360361027591908101906135f9565b610e22565b604051610288929190614028565b60405180910390f35b6102ab60048036036102a691908101906134c1565b6114e9565b005b6102c760048036036102c291908101906135a7565b61182e565b6040516102db989796959493929190614058565b60405180910390f35b6102ec611978565b6040516102f99190613feb565b60405180910390f35b61031c60048036036103179190810190613449565b611988565b60405161032a929190613e9b565b60405180910390f35b61033b61203a565b6040516103489190613dcb565b60405180910390f35b610359612060565b6040516103669190613fb5565b60405180910390f35b610377612086565b604051610384919061429d565b60405180910390f35b61039561208c565b005b6103b160048036036103ac9190810190613635565b612148565b6040516103be919061429d565b60405180910390f35b6103cf61255a565b6040516103dc9190613fd0565b60405180910390f35b3073ffffffffffffffffffffffffffffffffffffffff163373ffffffffffffffffffffffffffffffffffffffff1614610453576040517f08c379a000000000000000000000000000000000000000000000000000000000815260040161044a906140dd565b60405180910390fd5b6000839050601b8160ff16101561046b57601b810190505b600760009054906101000a900473ffffffffffffffffffffffffffffffffffffffff1673ffffffffffffffffffffffffffffffffffffffff16638fcbaf0c6104b1610df8565b30600760009054906101000a900473ffffffffffffffffffffffffffffffffffffffff1673ffffffffffffffffffffffffffffffffffffffff16637ecebe006104f8610df8565b6040518263ffffffff1660e01b81526004016105149190613dcb565b60206040518083038186803b15801561052c57600080fd5b505afa158015610540573d6000803e3d6000fd5b505050506040513d601f19601f8201168201806040525061056491908101906135d0565b60006001878a8a6040518963ffffffff1660e01b815260040161058e989796959493929190613e1d565b600060405180830381600087803b1580156105a857600080fd5b505af11580156105bc573d6000803e3d6000fd5b5050505050505050565b600080600560008473ffffffffffffffffffffffffffffffffffffffff1673ffffffffffffffffffffffffffffffffffffffff168152602001908152602001600020548460405160200161061b929190613da3565b604051602081830303815290604052805190602001209150600560008473ffffffffffffffffffffffffffffffffffffffff1673ffffffffffffffffffffffffffffffffffffffff1681526020019081526020016000205490508181915091509250929050565b6000806008547fea2aa0a1be11a07ed86d755c93467f4f82362b452371d1ba94d1715123511acb60001b8430600760009054906101000a900473ffffffffffffffffffffffffffffffffffffffff1673ffffffffffffffffffffffffffffffffffffffff16637ecebe00886040518263ffffffff1660e01b81526004016107099190613dcb565b60206040518083038186803b15801561072157600080fd5b505afa158015610735573d6000803e3d6000fd5b505050506040513d601f19601f8201168201806040525061075991908101906135d0565b6000600160405160200161077296959493929190613ee6565b60405160208183030381529060405280519060200120604051602001610799929190613d42565b60405160208183030381529060405280519060200120905080915050919050565b60008160ff1660058111156107cb57fe5b90506000600284815481106107dc57fe5b906000526020600020906007020160060160049054906101000a900460ff1690506002600581111561080a57fe5b82600581111561081657fe5b141561091657836002858154811061082a57fe5b906000526020600020906007020160010160009054906101000a900473ffffffffffffffffffffffffffffffffffffffff1673ffffffffffffffffffffffffffffffffffffffff166002868154811061087f57fe5b906000526020600020906007020160020160009054906101000a900473ffffffffffffffffffffffffffffffffffffffff1673ffffffffffffffffffffffffffffffffffffffff167f0e0b7eec3dce0fc4ed71a02dbc0384ad2622214d1f2c46657e51a3536d0076b0868560058111156108f557fe5b6040516109039291906142b8565b60405180910390a46109158185612580565b5b6003600581111561092357fe5b82600581111561092f57fe5b1415610a2f57836002858154811061094357fe5b906000526020600020906007020160010160009054906101000a900473ffffffffffffffffffffffffffffffffffffffff1673ffffffffffffffffffffffffffffffffffffffff166002868154811061099857fe5b906000526020600020906007020160020160009054906101000a900473ffffffffffffffffffffffffffffffffffffffff1673ffffffffffffffffffffffffffffffffffffffff167f0e0b7eec3dce0fc4ed71a02dbc0384ad2622214d1f2c46657e51a3536d0076b086856005811115610a0e57fe5b604051610a1c9291906142b8565b60405180910390a4610a2e81856128fd565b5b60046005811115610a3c57fe5b826005811115610a4857fe5b1415610b48578360028581548110610a5c57fe5b906000526020600020906007020160010160009054906101000a900473ffffffffffffffffffffffffffffffffffffffff1673ffffffffffffffffffffffffffffffffffffffff1660028681548110610ab157fe5b906000526020600020906007020160020160009054906101000a900473ffffffffffffffffffffffffffffffffffffffff1673ffffffffffffffffffffffffffffffffffffffff167f0e0b7eec3dce0fc4ed71a02dbc0384ad2622214d1f2c46657e51a3536d0076b086856005811115610b2757fe5b604051610b359291906142b8565b60405180910390a4610b478185612a0d565b5b600580811115610b5457fe5b826005811115610b6057fe5b1415610c60578360028581548110610b7457fe5b906000526020600020906007020160010160009054906101000a900473ffffffffffffffffffffffffffffffffffffffff1673ffffffffffffffffffffffffffffffffffffffff1660028681548110610bc957fe5b906000526020600020906007020160020160009054906101000a900473ffffffffffffffffffffffffffffffffffffffff1673ffffffffffffffffffffffffffffffffffffffff167f0e0b7eec3dce0fc4ed71a02dbc0384ad2622214d1f2c46657e51a3536d0076b086856005811115610c3f57fe5b604051610c4d9291906142b8565b60405180910390a4610c5f8185612dbd565b5b60006005811115610c6d57fe5b826005811115610c7957fe5b1415610d79578360028581548110610c8d57fe5b906000526020600020906007020160010160009054906101000a900473ffffffffffffffffffffffffffffffffffffffff1673ffffffffffffffffffffffffffffffffffffffff1660028681548110610ce257fe5b906000526020600020906007020160020160009054906101000a900473ffffffffffffffffffffffffffffffffffffffff1673ffffffffffffffffffffffffffffffffffffffff167f0e0b7eec3dce0fc4ed71a02dbc0384ad2622214d1f2c46657e51a3536d0076b086856005811115610d5857fe5b604051610d669291906142b8565b60405180910390a4610d788185612fcf565b5b8160028581548110610d8757fe5b906000526020600020906007020160060160046101000a81548160ff02191690836005811115610db357fe5b021790555050505050565b7fea2aa0a1be11a07ed86d755c93467f4f82362b452371d1ba94d1715123511acb60001b81565b60085481565b6201518081565b60015481565b6000600460009054906101000a900473ffffffffffffffffffffffffffffffffffffffff16905090565b606060008060028581548110610e3457fe5b906000526020600020906007020160060160049054906101000a900460ff1690506040518060400160405280601381526020017f4f66666572206e6f7420617661696c61626c6500000000000000000000000000815250925060ff915060016005811115610e9e57fe5b816005811115610eaa57fe5b1415610f7d5760028581548110610ebd57fe5b906000526020600020906007020160010160009054906101000a900473ffffffffffffffffffffffffffffffffffffffff1673ffffffffffffffffffffffffffffffffffffffff168473ffffffffffffffffffffffffffffffffffffffff161415610f51576040518060600160405280602181526020016146e060219139925060006005811115610f4a57fe5b9150610f7c565b60405180606001604052806036815260200161466960369139925060026005811115610f7957fe5b91505b5b60026005811115610f8a57fe5b816005811115610f9657fe5b14156110cd5760028581548110610fa957fe5b906000526020600020906007020160020160009054906101000a900473ffffffffffffffffffffffffffffffffffffffff1673ffffffffffffffffffffffffffffffffffffffff168473ffffffffffffffffffffffffffffffffffffffff16141561103d576040518060600160405280603681526020016147016036913992506003600581111561103657fe5b91506110cc565b6002858154811061104a57fe5b906000526020600020906007020160010160009054906101000a900473ffffffffffffffffffffffffffffffffffffffff1673ffffffffffffffffffffffffffffffffffffffff168473ffffffffffffffffffffffffffffffffffffffff1614156110cb576040518060600160405280602381526020016146466023913992505b5b5b600360058111156110da57fe5b8160058111156110e657fe5b141561118a57600285815481106110f957fe5b906000526020600020906007020160010160009054906101000a900473ffffffffffffffffffffffffffffffffffffffff1673ffffffffffffffffffffffffffffffffffffffff168473ffffffffffffffffffffffffffffffffffffffff16141561117a576040518060600160405280602181526020016145806021913992505b6004600581111561118757fe5b91505b6004600581111561119757fe5b8160058111156111a357fe5b14156112da57600285815481106111b657fe5b906000526020600020906007020160020160009054906101000a900473ffffffffffffffffffffffffffffffffffffffff1673ffffffffffffffffffffffffffffffffffffffff168473ffffffffffffffffffffffffffffffffffffffff16141561123b5760405180608001604052806041815260200161469f6041913992506112ca565b6002858154811061124857fe5b906000526020600020906007020160010160009054906101000a900473ffffffffffffffffffffffffffffffffffffffff1673ffffffffffffffffffffffffffffffffffffffff168473ffffffffffffffffffffffffffffffffffffffff1614156112c9576040518060800160405280605281526020016145f46052913992505b5b600060058111156112d757fe5b91505b4262015180600287815481106112ec57fe5b906000526020600020906007020160060160009054906101000a900463ffffffff1663ffffffff1601111561146d576002858154811061132857fe5b906000526020600020906007020160020160009054906101000a900473ffffffffffffffffffffffffffffffffffffffff1673ffffffffffffffffffffffffffffffffffffffff168473ffffffffffffffffffffffffffffffffffffffff1614806113fc57506002858154811061139b57fe5b906000526020600020906007020160010160009054906101000a900473ffffffffffffffffffffffffffffffffffffffff1673ffffffffffffffffffffffffffffffffffffffff168473ffffffffffffffffffffffffffffffffffffffff16145b1561142f576040518060c001604052806097815260200161473760979139925060058081111561142857fe5b915061146c565b6040518060400160405280601381526020017f4f66666572206e6f7420617661696c61626c6500000000000000000000000000815250925060ff91505b5b42620151806002026002878154811061148257fe5b906000526020600020906007020160060160009054906101000a900463ffffffff1663ffffffff160111156114db576040518060800160405280605381526020016145a16053913992506005808111156114d857fe5b91505b828292509250509250929050565b6000839050601b8160ff16101561150157601b810190505b600185888860405160200161151893929190613d79565b604051602081830303815290604052805190602001208585856040516000815260200160405260405161154e9493929190613f70565b6020604051602081039080840390855afa158015611570573d6000803e3d6000fd5b50505060206040510351600460006101000a81548173ffffffffffffffffffffffffffffffffffffffff021916908373ffffffffffffffffffffffffffffffffffffffff1602179055508460056000600460009054906101000a900473ffffffffffffffffffffffffffffffffffffffff1673ffffffffffffffffffffffffffffffffffffffff1673ffffffffffffffffffffffffffffffffffffffff168152602001908152602001600020541461165d576040517f08c379a00000000000000000000000000000000000000000000000000000000081526004016116549061423d565b60405180910390fd5b600160056000600460009054906101000a900473ffffffffffffffffffffffffffffffffffffffff1673ffffffffffffffffffffffffffffffffffffffff1673ffffffffffffffffffffffffffffffffffffffff168152602001908152602001600020540160056000600460009054906101000a900473ffffffffffffffffffffffffffffffffffffffff1673ffffffffffffffffffffffffffffffffffffffff1673ffffffffffffffffffffffffffffffffffffffff16815260200190815260200160002081905550600060603073ffffffffffffffffffffffffffffffffffffffff168989604051611752929190613d29565b6000604051808303816000865af19150503d806000811461178f576040519150601f19603f3d011682016040523d82523d6000602084013e611794565b606091505b5080925081935050508181906117e0576040517f08c379a00000000000000000000000000000000000000000000000000000000081526004016117d79190614006565b60405180910390fd5b506000600460006101000a81548173ffffffffffffffffffffffffffffffffffffffff021916908373ffffffffffffffffffffffffffffffffffffffff160217905550505050505050505050565b6002818154811061183b57fe5b9060005260206000209060070201600091509050806000018054600181600116156101000203166002900480601f0160208091040260200160405190810160405280929190818152602001828054600181600116156101000203166002900480156118e75780601f106118bc576101008083540402835291602001916118e7565b820191906000526020600020905b8154815290600101906020018083116118ca57829003601f168201915b5050505050908060010160009054906101000a900473ffffffffffffffffffffffffffffffffffffffff16908060020160009054906101000a900473ffffffffffffffffffffffffffffffffffffffff16908060030154908060040154908060050154908060060160009054906101000a900463ffffffff16908060060160049054906101000a900460ff16905088565b6000600160028054905003905090565b60006060600191506040518060400160405280600881526020017f416c6c20636f6f6c000000000000000000000000000000000000000000000000815250905060058360ff161115611a1b576040518060400160405280600d81526020017f6e6f207375636820737461746500000000000000000000000000000000000000815250905060009150818191509150612032565b60008360ff166005811115611a2c57fe5b90506002805490508510611a8257600092506040518060400160405280601281526020017f696e636f7272656374206f666665722049640000000000000000000000000000815250915082829250925050612032565b600060028681548110611a9157fe5b906000526020600020906007020160060160049054906101000a900460ff16905060006005811115611abf57fe5b816005811115611acb57fe5b1480611aec5750600580811115611ade57fe5b816005811115611aea57fe5b145b15611b3a576040518060400160405280600f81526020017f4f666665722066696e616c697a656400000000000000000000000000000000008152509250600093508383935093505050612032565b60016005811115611b4757fe5b816005811115611b5357fe5b1415611d3957600093506040518060400160405280601281526020017f7472616e736974696f6e20696e76616c69640000000000000000000000000000815250925060026005811115611ba257fe5b826005811115611bae57fe5b148015611c25575060028681548110611bc357fe5b906000526020600020906007020160010160009054906101000a900473ffffffffffffffffffffffffffffffffffffffff1673ffffffffffffffffffffffffffffffffffffffff168773ffffffffffffffffffffffffffffffffffffffff1614155b15611c6757600193506040518060400160405280600881526020017f416c6c20636f6f6c00000000000000000000000000000000000000000000000081525092505b60006005811115611c7457fe5b826005811115611c8057fe5b148015611cf6575060028681548110611c9557fe5b906000526020600020906007020160010160009054906101000a900473ffffffffffffffffffffffffffffffffffffffff1673ffffffffffffffffffffffffffffffffffffffff168773ffffffffffffffffffffffffffffffffffffffff16145b15611d3857600193506040518060400160405280600881526020017f416c6c20636f6f6c00000000000000000000000000000000000000000000000081525092505b5b60026005811115611d4657fe5b816005811115611d5257fe5b1415611e0d5760028681548110611d6557fe5b906000526020600020906007020160020160009054906101000a900473ffffffffffffffffffffffffffffffffffffffff1673ffffffffffffffffffffffffffffffffffffffff168773ffffffffffffffffffffffffffffffffffffffff161415611dcf57611e0c565b600093506040518060400160405280601d81526020017f706572736f6e20696e76616c696420434f4c4c41544552414c495a454400000081525092505b5b60036005811115611e1a57fe5b816005811115611e2657fe5b1415611ee15760028681548110611e3957fe5b906000526020600020906007020160010160009054906101000a900473ffffffffffffffffffffffffffffffffffffffff1673ffffffffffffffffffffffffffffffffffffffff168773ffffffffffffffffffffffffffffffffffffffff161415611ea357611ee0565b600093506040518060400160405280601581526020017f706572736f6e20696e76616c69642046494c4c4544000000000000000000000081525092505b5b60046005811115611eee57fe5b816005811115611efa57fe5b14156120295760028681548110611f0d57fe5b906000526020600020906007020160010160009054906101000a900473ffffffffffffffffffffffffffffffffffffffff1673ffffffffffffffffffffffffffffffffffffffff168773ffffffffffffffffffffffffffffffffffffffff161480611fe1575060028681548110611f8057fe5b906000526020600020906007020160020160009054906101000a900473ffffffffffffffffffffffffffffffffffffffff1673ffffffffffffffffffffffffffffffffffffffff168773ffffffffffffffffffffffffffffffffffffffff16145b15611feb57612028565b600093506040518060400160405280601781526020017f706572736f6e20696e76616c696420414343455054454400000000000000000081525092505b5b83839350935050505b935093915050565b600360009054906101000a900473ffffffffffffffffffffffffffffffffffffffff1681565b600660009054906101000a900473ffffffffffffffffffffffffffffffffffffffff1681565b60005481565b6000600180540390505b62030d405a1180156120ac575060028054905081105b1561213e574262015180600283815481106120c357fe5b906000526020600020906007020160060160009054906101000a900463ffffffff1663ffffffff160111156121335760056002828154811061210157fe5b906000526020600020906007020160060160046101000a81548160ff0219169083600581111561212d57fe5b02179055505b600181019050612096565b8060018190555050565b60003073ffffffffffffffffffffffffffffffffffffffff163373ffffffffffffffffffffffffffffffffffffffff16146121b8576040517f08c379a00000000000000000000000000000000000000000000000000000000081526004016121af906140dd565b60405180910390fd5b6040518061010001604052808381526020016121d2610df8565b73ffffffffffffffffffffffffffffffffffffffff168152602001600073ffffffffffffffffffffffffffffffffffffffff168152602001858152602001848152602001600081526020014263ffffffff1681526020016001600581111561223657fe5b81525060026001600280549050038154811061224e57fe5b90600052602060002090600702016000820151816000019080519060200190612278929190613211565b5060208201518160010160006101000a81548173ffffffffffffffffffffffffffffffffffffffff021916908373ffffffffffffffffffffffffffffffffffffffff16021790555060408201518160020160006101000a81548173ffffffffffffffffffffffffffffffffffffffff021916908373ffffffffffffffffffffffffffffffffffffffff160217905550606082015181600301556080820151816004015560a0820151816005015560c08201518160060160006101000a81548163ffffffff021916908363ffffffff16021790555060e08201518160060160046101000a81548160ff0219169083600581111561237057fe5b0217905550905050600660009054906101000a900473ffffffffffffffffffffffffffffffffffffffff1673ffffffffffffffffffffffffffffffffffffffff166323b872dd6123be610df8565b30876002026040518463ffffffff1660e01b81526004016123e193929190613de6565b602060405180830381600087803b1580156123fb57600080fd5b505af115801561240f573d6000803e3d6000fd5b505050506040513d601f19601f820116820180604052506124339190810190613498565b50836002828154811061244257fe5b906000526020600020906007020160050181905550806002828154811061246557fe5b906000526020600020906007020160010160009054906101000a900473ffffffffffffffffffffffffffffffffffffffff1673ffffffffffffffffffffffffffffffffffffffff16600283815481106124ba57fe5b906000526020600020906007020160020160009054906101000a900473ffffffffffffffffffffffffffffffffffffffff1673ffffffffffffffffffffffffffffffffffffffff167f0e0b7eec3dce0fc4ed71a02dbc0384ad2622214d1f2c46657e51a3536d0076b06001600581111561253057fe5b6001600581111561253d57fe5b60405161254b9291906142b8565b60405180910390a49392505050565b600760009054906101000a900473ffffffffffffffffffffffffffffffffffffffff1681565b6002818154811061258d57fe5b906000526020600020906007020160060160009054906101000a900463ffffffff1663ffffffff164211156128be57600073ffffffffffffffffffffffffffffffffffffffff16600282815481106125e157fe5b906000526020600020906007020160020160009054906101000a900473ffffffffffffffffffffffffffffffffffffffff1673ffffffffffffffffffffffffffffffffffffffff1614612669576040517f08c379a00000000000000000000000000000000000000000000000000000000081526004016126609061427d565b60405180910390fd5b612671610df8565b73ffffffffffffffffffffffffffffffffffffffff166002828154811061269457fe5b906000526020600020906007020160010160009054906101000a900473ffffffffffffffffffffffffffffffffffffffff1673ffffffffffffffffffffffffffffffffffffffff16141561271d576040517f08c379a00000000000000000000000000000000000000000000000000000000081526004016127149061411d565b60405180910390fd5b600660009054906101000a900473ffffffffffffffffffffffffffffffffffffffff1673ffffffffffffffffffffffffffffffffffffffff166323b872dd612763610df8565b306002858154811061277157fe5b9060005260206000209060070201600301546040518463ffffffff1660e01b81526004016127a193929190613de6565b602060405180830381600087803b1580156127bb57600080fd5b505af11580156127cf573d6000803e3d6000fd5b505050506040513d601f19601f820116820180604052506127f39190810190613498565b506002818154811061280157fe5b9060005260206000209060070201600301546002828154811061282057fe5b906000526020600020906007020160050154016002828154811061284057fe5b90600052602060002090600702016005018190555061285d610df8565b6002828154811061286a57fe5b906000526020600020906007020160020160006101000a81548173ffffffffffffffffffffffffffffffffffffffff021916908373ffffffffffffffffffffffffffffffffffffffff1602179055506128f9565b6040517f08c379a00000000000000000000000000000000000000000000000000000000081526004016128f0906141fd565b60405180910390fd5b5050565b6002600581111561290a57fe5b82600581111561291657fe5b14612956576040517f08c379a000000000000000000000000000000000000000000000000000000000815260040161294d9061419d565b60405180910390fd5b6002818154811061296357fe5b906000526020600020906007020160020160009054906101000a900473ffffffffffffffffffffffffffffffffffffffff1673ffffffffffffffffffffffffffffffffffffffff166129b3610df8565b73ffffffffffffffffffffffffffffffffffffffff1614612a09576040517f08c379a0000000000000000000000000000000000000000000000000000000008152600401612a009061417d565b60405180910390fd5b5050565b60036005811115612a1a57fe5b826005811115612a2657fe5b14612a66576040517f08c379a0000000000000000000000000000000000000000000000000000000008152600401612a5d9061415d565b60405180910390fd5b60028181548110612a7357fe5b906000526020600020906007020160010160009054906101000a900473ffffffffffffffffffffffffffffffffffffffff1673ffffffffffffffffffffffffffffffffffffffff16612ac3610df8565b73ffffffffffffffffffffffffffffffffffffffff1614612b19576040517f08c379a0000000000000000000000000000000000000000000000000000000008152600401612b10906141dd565b60405180910390fd5b600360028281548110612b2857fe5b9060005260206000209060070201600301540260028281548110612b4857fe5b9060005260206000209060070201600501541015612b9b576040517f08c379a0000000000000000000000000000000000000000000000000000000008152600401612b929061425d565b60405180910390fd5b600660009054906101000a900473ffffffffffffffffffffffffffffffffffffffff1673ffffffffffffffffffffffffffffffffffffffff166323b872dd3060028481548110612be757fe5b906000526020600020906007020160010160009054906101000a900473ffffffffffffffffffffffffffffffffffffffff1660028581548110612c2657fe5b9060005260206000209060070201600301546040518463ffffffff1660e01b8152600401612c5693929190613de6565b602060405180830381600087803b158015612c7057600080fd5b505af1158015612c84573d6000803e3d6000fd5b505050506040513d601f19601f82011682018060405250612ca89190810190613498565b50600660009054906101000a900473ffffffffffffffffffffffffffffffffffffffff1673ffffffffffffffffffffffffffffffffffffffff166323b872dd3060028481548110612cf557fe5b906000526020600020906007020160020160009054906101000a900473ffffffffffffffffffffffffffffffffffffffff166002808681548110612d3557fe5b906000526020600020906007020160030154026040518463ffffffff1660e01b8152600401612d6693929190613de6565b602060405180830381600087803b158015612d8057600080fd5b505af1158015612d94573d6000803e3d6000fd5b505050506040513d601f19601f82011682018060405250612db89190810190613498565b505050565b60016005811115612dca57fe5b826005811115612dd657fe5b14158015612dfb575060006005811115612dec57fe5b826005811115612df857fe5b14155b612e3a576040517f08c379a0000000000000000000000000000000000000000000000000000000008152600401612e319061413d565b60405180910390fd5b426201518060028381548110612e4c57fe5b906000526020600020906007020160060160009054906101000a900463ffffffff1663ffffffff160111612eb5576040517f08c379a0000000000000000000000000000000000000000000000000000000008152600401612eac906141bd565b60405180910390fd5b600660009054906101000a900473ffffffffffffffffffffffffffffffffffffffff1673ffffffffffffffffffffffffffffffffffffffff166323b872dd30600360009054906101000a900473ffffffffffffffffffffffffffffffffffffffff1660028581548110612f2457fe5b9060005260206000209060070201600501546040518463ffffffff1660e01b8152600401612f5493929190613de6565b602060405180830381600087803b158015612f6e57600080fd5b505af1158015612f82573d6000803e3d6000fd5b505050506040513d601f19601f82011682018060405250612fa69190810190613498565b50600060028281548110612fb657fe5b9060005260206000209060070201600501819055505050565b60016005811115612fdc57fe5b826005811115612fe857fe5b14613028576040517f08c379a000000000000000000000000000000000000000000000000000000000815260040161301f9061421d565b60405180910390fd5b6002818154811061303557fe5b906000526020600020906007020160010160009054906101000a900473ffffffffffffffffffffffffffffffffffffffff1673ffffffffffffffffffffffffffffffffffffffff16613085610df8565b73ffffffffffffffffffffffffffffffffffffffff16146130db576040517f08c379a00000000000000000000000000000000000000000000000000000000081526004016130d2906140fd565b60405180910390fd5b600660009054906101000a900473ffffffffffffffffffffffffffffffffffffffff1673ffffffffffffffffffffffffffffffffffffffff166323b872dd306002848154811061312757fe5b906000526020600020906007020160010160009054906101000a900473ffffffffffffffffffffffffffffffffffffffff166002858154811061316657fe5b9060005260206000209060070201600501546040518463ffffffff1660e01b815260040161319693929190613de6565b602060405180830381600087803b1580156131b057600080fd5b505af11580156131c4573d6000803e3d6000fd5b505050506040513d601f19601f820116820180604052506131e89190810190613498565b506000600282815481106131f857fe5b9060005260206000209060070201600501819055505050565b828054600181600116156101000203166002900490600052602060002090601f016020900481019282601f1061325257805160ff1916838001178555613280565b82800160010185558215613280579182015b8281111561327f578251825591602001919060010190613264565b5b50905061328d9190613291565b5090565b6132b391905b808211156132af576000816000905550600101613297565b5090565b90565b60006132c2823561443b565b905092915050565b60006132d6825161444d565b905092915050565b60006132ea8235614459565b905092915050565b60008083601f84011261330457600080fd5b8235905067ffffffffffffffff81111561331d57600080fd5b60208301915083600182028301111561333557600080fd5b9250929050565b600082601f83011261334d57600080fd5b813561336061335b8261430e565b6142e1565b9150808252602083016020830185838301111561337c57600080fd5b613387838284614518565b50505092915050565b600082601f8301126133a157600080fd5b81356133b46133af8261433a565b6142e1565b915080825260208301602083018583830111156133d057600080fd5b6133db838284614518565b50505092915050565b60006133f08235614483565b905092915050565b60006134048251614483565b905092915050565b6000613418823561448d565b905092915050565b60006020828403121561343257600080fd5b6000613440848285016132b6565b91505092915050565b60008060006060848603121561345e57600080fd5b600061346c868287016132b6565b935050602061347d868287016133e4565b925050604061348e8682870161340c565b9150509250925092565b6000602082840312156134aa57600080fd5b60006134b8848285016132ca565b91505092915050565b60008060008060008060a087890312156134da57600080fd5b600087013567ffffffffffffffff8111156134f457600080fd5b61350089828a016132f2565b9650965050602061351389828a016133e4565b945050604061352489828a0161340c565b935050606061353589828a016132de565b925050608061354689828a016132de565b9150509295509295509295565b6000806040838503121561356657600080fd5b600083013567ffffffffffffffff81111561358057600080fd5b61358c8582860161333c565b925050602061359d858286016132b6565b9150509250929050565b6000602082840312156135b957600080fd5b60006135c7848285016133e4565b91505092915050565b6000602082840312156135e257600080fd5b60006135f0848285016133f8565b91505092915050565b6000806040838503121561360c57600080fd5b600061361a858286016133e4565b925050602061362b858286016132b6565b9150509250929050565b60008060006060848603121561364a57600080fd5b6000613658868287016133e4565b9350506020613669868287016133e4565b925050604084013567ffffffffffffffff81111561368657600080fd5b61369286828701613390565b9150509250925092565b600080604083850312156136af57600080fd5b60006136bd858286016133e4565b92505060206136ce8582860161340c565b9150509250929050565b6000806000606084860312156136ed57600080fd5b60006136fb8682870161340c565b935050602061370c868287016132de565b925050604061371d868287016132de565b9150509250925092565b613730816143ae565b82525050565b61373f816143c0565b82525050565b61374e816143cc565b82525050565b613765613760826143cc565b61455a565b82525050565b60006137778385614387565b9350613784838584614518565b82840190509392505050565b600061379b82614366565b6137a58185614387565b93506137b5818560208601614527565b80840191505092915050565b6137ca8161449a565b82525050565b6137d9816144be565b82525050565b6137e8816144e2565b82525050565b6137f7816143ea565b82525050565b613806816144f4565b82525050565b61381581614506565b82525050565b60006138268261437c565b6138308185614392565b9350613840818560208601614527565b6138498161456e565b840191505092915050565b600061385f82614371565b6138698185614392565b9350613879818560208601614527565b6138828161456e565b840191505092915050565b600061389a601983614392565b91507f63616e2062652063616c6c6564206f6e6c7920622073656c66000000000000006000830152602082019050919050565b60006138da602283614392565b91507f4f6e6c79206f6666657220637261746f722063616e2063616e63656c206f666660008301527f65720000000000000000000000000000000000000000000000000000000000006020830152604082019050919050565b6000613940601a83614392565b91507f74616b65722063616e6e6f7420657175616c2063726561746f720000000000006000830152602082019050919050565b6000613980601d83614392565b91507f5472616e736974696f6e20746f2054494d454f555420696e76616c69640000006000830152602082019050919050565b60006139c06002836143a3565b91507f19010000000000000000000000000000000000000000000000000000000000006000830152600282019050919050565b6000613a00601e83614392565b91507f5472616e736974696f6e20746f20414343455054454420696e76616c696400006000830152602082019050919050565b6000613a40602b83614392565b91507f4f6e6c792044414920526563697069656e74202863726561746f72292063616e60008301527f2066696c6c206f726465720000000000000000000000000000000000000000006020830152604082019050919050565b6000613aa6601c83614392565b91507f5472616e736974696f6e20746f2046494c4c454420696e76616c6964000000006000830152602082019050919050565b6000613ae6601383614392565b91507f54696d65206e6f742070617373656420796574000000000000000000000000006000830152602082019050919050565b6000613b26602a83614392565b91507f4f6e6c79204441492053656e646572202863726561746f72292063616e20616360008301527f63657074206f72646572000000000000000000000000000000000000000000006020830152604082019050919050565b6000613b8c602483614392565b91507f5472616e736974696f6e20746f20434f4c4c41544552414c495a454420696e7660008301527f616c6964000000000000000000000000000000000000000000000000000000006020830152604082019050919050565b6000613bf2601a83614392565b91507f5472616e736974696f6e20746f204e4f4e4520696e76616c69640000000000006000830152602082019050919050565b6000613c32600d83614392565b91507f6e6f6e636520696e76616c6964000000000000000000000000000000000000006000830152602082019050919050565b6000613c72601c83614392565b91507f5061796f75747320626967676572207468616e206465706f73697473000000006000830152602082019050919050565b6000613cb2601583614392565b91507f74616b6572206d757374206e6f742062652073657400000000000000000000006000830152602082019050919050565b613cee81614414565b82525050565b613d05613d0082614414565b614564565b82525050565b613d148161441e565b82525050565b613d238161442e565b82525050565b6000613d3682848661376b565b91508190509392505050565b6000613d4d826139b3565b9150613d598285613754565b602082019150613d698284613754565b6020820191508190509392505050565b6000613d858286613cf4565b602082019150613d9682848661376b565b9150819050949350505050565b6000613daf8285613cf4565b602082019150613dbf8284613790565b91508190509392505050565b6000602082019050613de06000830184613727565b92915050565b6000606082019050613dfb6000830186613727565b613e086020830185613727565b613e156040830184613ce5565b949350505050565b600061010082019050613e33600083018b613727565b613e40602083018a613727565b613e4d6040830189613ce5565b613e5a60608301886137fd565b613e676080830187613736565b613e7460a0830186613d1a565b613e8160c0830185613745565b613e8e60e0830184613745565b9998505050505050505050565b6000604082019050613eb06000830185613736565b8181036020830152613ec2818461381b565b90509392505050565b6000602082019050613ee06000830184613745565b92915050565b600060c082019050613efb6000830189613745565b613f086020830188613727565b613f156040830187613727565b613f226060830186613ce5565b613f2f608083018561380c565b613f3c60a0830184613736565b979650505050505050565b6000604082019050613f5c6000830185613745565b613f696020830184613ce5565b9392505050565b6000608082019050613f856000830187613745565b613f926020830186613d1a565b613f9f6040830185613745565b613fac6060830184613745565b95945050505050565b6000602082019050613fca60008301846137c1565b92915050565b6000602082019050613fe560008301846137d0565b92915050565b600060208201905061400060008301846137ee565b92915050565b60006020820190508181036000830152614020818461381b565b905092915050565b60006040820190508181036000830152614042818561381b565b90506140516020830184613d1a565b9392505050565b6000610100820190508181036000830152614073818b613854565b9050614082602083018a613727565b61408f6040830189613727565b61409c6060830188613ce5565b6140a96080830187613ce5565b6140b660a0830186613ce5565b6140c360c0830185613d0b565b6140d060e08301846137df565b9998505050505050505050565b600060208201905081810360008301526140f68161388d565b9050919050565b60006020820190508181036000830152614116816138cd565b9050919050565b6000602082019050818103600083015261413681613933565b9050919050565b6000602082019050818103600083015261415681613973565b9050919050565b60006020820190508181036000830152614176816139f3565b9050919050565b6000602082019050818103600083015261419681613a33565b9050919050565b600060208201905081810360008301526141b681613a99565b9050919050565b600060208201905081810360008301526141d681613ad9565b9050919050565b600060208201905081810360008301526141f681613b19565b9050919050565b6000602082019050818103600083015261421681613b7f565b9050919050565b6000602082019050818103600083015261423681613be5565b9050919050565b6000602082019050818103600083015261425681613c25565b9050919050565b6000602082019050818103600083015261427681613c65565b9050919050565b6000602082019050818103600083015261429681613ca5565b9050919050565b60006020820190506142b26000830184613ce5565b92915050565b60006040820190506142cd6000830185613d1a565b6142da6020830184613d1a565b9392505050565b6000604051905081810181811067ffffffffffffffff8211171561430457600080fd5b8060405250919050565b600067ffffffffffffffff82111561432557600080fd5b601f19601f8301169050602081019050919050565b600067ffffffffffffffff82111561435157600080fd5b601f19601f8301169050602081019050919050565b600081519050919050565b600081519050919050565b600081519050919050565b600081905092915050565b600082825260208201905092915050565b600081905092915050565b60006143b9826143f4565b9050919050565b60008115159050919050565b6000819050919050565b6000600682106143e257fe5b819050919050565b6000819050919050565b600073ffffffffffffffffffffffffffffffffffffffff82169050919050565b6000819050919050565b600063ffffffff82169050919050565b600060ff82169050919050565b600061444682614463565b9050919050565b60008115159050919050565b6000819050919050565b600073ffffffffffffffffffffffffffffffffffffffff82169050919050565b6000819050919050565b600060ff82169050919050565b60006144a5826144ac565b9050919050565b60006144b7826143f4565b9050919050565b60006144c9826144d0565b9050919050565b60006144db826143f4565b9050919050565b60006144ed826143d6565b9050919050565b60006144ff82614414565b9050919050565b60006145118261442e565b9050919050565b82818337600083830152505050565b60005b8381101561454557808201518184015260208101905061452a565b83811115614554576000848401525b50505050565b6000819050919050565b6000819050919050565b6000601f19601f830116905091905056fe496620596f75206861766520676f7420796f757220636173682c2061636365707454686973204f7264657220776173206e6f74207375636365737366756c2c2070726f6365656420746f2073656e6420616c6c206465706f7369747320746f20426974636f696e73466f7256656e657a75656c61436f6e67726174756c6174696f6e2c20796f7572206465706f7369742073686f756c64206265206261636b20696e20796f75722077616c6c657420616e64206361736820696e20796f757220706f636b65745761697420666f72206d656574696e6720706f696e7420696e737472756374696f6e73507574207365637572697479206465706f73697420284441492920696e206f7264657220746f2074616b652074686174206f72646572436f6e67726174756c6174696f6e2c20796f7572206465706f73697420616e64207061796d656e742073686f756c6420626520696e20796f75722077616c6c6574446f20596f752077616e7420746f2063616e63656c2074686973206f666665723f50726570617265206361736820616e64206465736372696265206d656574696e6720706f696e7420746f20796f757220636c69656e74556e666f7274756e6174656c6c792c20796f7520646964206e6f74206d616e61676520746f2066696e616c697a65206f7264657220696e2074696d652c20636c69636b2050726f6365656420746f2073656e6420616c6c20796f7572207061796d656e747320616e64206465706f736974732077696c6c2062652073656e6420746f20426974636f696e73466f7256656e657a75656c61a265627a7a72305820a604ded509b58b38871dbfc8339844af74dcdcb9a9b73e4faf182d66a1ad0f326c6578706572696d656e74616cf50037",
  "source": "pragma solidity ^0.5.7;\npragma experimental ABIEncoderV2;\n\nimport \"@openzeppelin/contracts/token/ERC20/IERC20.sol\";\nimport \"./Permitable.sol\";\n\ncontract Market {\n    uint256 public lastClearedOfferIndex;\n    uint256 public lastTimeOutedOffer;\n    Offer[] public offers;\n    uint256 public constant OFFER_TIMEOUT = 24 * 3600;\n    bytes32 public constant PERMIT_TYPEHASH = 0xea2aa0a1be11a07ed86d755c93467f4f82362b452371d1ba94d1715123511acb;\n    address public timeOutBeneficiary;\n    address private tempSender;\n    mapping(address => uint256) nonces;\n    IERC20 public daiToken;\n    Permitable public dai;\n    bytes32 public DOMAIN_SEPARATOR;\n\n    constructor(address _relayerHub, address _dai, address _bfv) public {\n        daiToken = IERC20(_dai);\n        dai = Permitable(_dai);\n        DOMAIN_SEPARATOR = Permitable(_dai).DOMAIN_SEPARATOR();\n\n    }\n\n    enum OfferState {\n        NONE,\n        SUGGESTED,\n        COLLATERALIZED,\n        FILLED,\n        ACCEPTED,\n        TIMEOUTED\n    }\n\n    struct Offer {\n        string destCurrency;\n        address creator;\n        address taker;\n        uint256 sumIn;\n        uint256 sumOut;\n        uint256 totalDeposited;\n        uint32 timeStarted;\n        OfferState status;\n    }\n\n    modifier onlySelf {\n        require(msg.sender == address(this), \"can be called only b self\");\n        _;\n    }\n\n    function getSender() public view returns (address) {\n        return tempSender;\n    }\n\n    function permit(uint8 v, bytes32 r, bytes32 s) public onlySelf {\n        uint8 v2 = v;\n        if (v2 < 27) {\n            v2 = v2 + 27;\n        }\n        dai.permit(\n            getSender(),\n            address(this),\n            dai.nonces(getSender()),\n            0,\n            true,\n            v2,\n            r,\n            s\n        );\n    }\n\n    function relayCall(\n        bytes calldata data,\n        uint256 nonce,\n        uint8 v,\n        bytes32 r,\n        bytes32 s\n    ) external {\n        uint8 v2 = v;\n        if (v2 < 27) {\n            v2 = v2 + 27;\n        }\n        tempSender = ecrecover(\n            keccak256(abi.encodePacked(nonce, data)),\n            v,\n            r,\n            s\n        );\n        require(nonces[tempSender] == nonce, \"nonce invalid\");\n        nonces[tempSender] = nonces[tempSender] + 1;\n        bool status;\n        bytes memory message;\n        (status, message) = address(this).call(data);\n        require(status, string(message));\n        tempSender = address(0);\n    }\n\n    function generateDigest(address holder) public view returns (bytes32) {\n        bytes32 digest = keccak256(\n            abi.encodePacked(\n                \"\\x19\\x01\",\n                DOMAIN_SEPARATOR,\n                keccak256(\n                    abi.encode(\n                        PERMIT_TYPEHASH,\n                        holder,\n                        address(this),\n                        dai.nonces(holder),\n                        0,\n                        true\n                    )\n                )\n            )\n        );\n        return digest;\n    }\n\n    function generateMethodCallDigest(bytes memory data, address user)\n        public\n        view\n        returns (bytes32 digest, uint256 nonce)\n    {\n        digest = keccak256(abi.encodePacked(nonces[user], data));\n        nonce = nonces[user];\n        return (digest, nonce);\n    }\n\n    function addOffer(\n        uint256 sourceAmount,\n        uint256 destAmount,\n        string memory destCurrency\n    ) public onlySelf returns (uint256 offerId) {\n        offers[offers.length - 1] = Offer(\n            destCurrency,\n            getSender(),\n            address(0),\n            sourceAmount,\n            destAmount,\n            0,\n            uint32(now),\n            OfferState.SUGGESTED\n        );\n        daiToken.transferFrom(getSender(), address(this), 2 * sourceAmount);\n        offers[offerId].totalDeposited = sourceAmount;\n\n        emit ProcessOffer(\n            offers[offerId].taker,\n            offers[offerId].creator,\n            offerId,\n            uint8(OfferState.SUGGESTED),\n            uint8(OfferState.SUGGESTED)\n        );\n    }\n\n    function canMove(address sender, uint256 offerId, uint8 destinationStateInt)\n        public\n        view\n        returns (bool result, string memory reason)\n    {\n        result = true;\n        reason = \"All cool\";\n        if (destinationStateInt > 5) {\n            reason = \"no such state\";\n            result = false;\n            return (result, reason);\n        }\n        OfferState destinationState = OfferState(destinationStateInt);\n        if (offerId >= offers.length) {\n            result = false;\n            reason = \"incorrect offer Id\";\n            return (result, reason);\n        }\n        OfferState state = offers[offerId].status;\n        if (state == OfferState.NONE || state == OfferState.TIMEOUTED) {\n            reason = \"Offer finalized\";\n            result = false;\n            return (result, reason);\n        }\n        if (state == OfferState.SUGGESTED) {\n            result = false;\n            reason = \"transition invalid\";\n            if (\n                destinationState == OfferState.COLLATERALIZED &&\n                sender != offers[offerId].creator\n            ) {\n                result = true;\n                reason = \"All cool\";\n            }\n            if (\n                destinationState == OfferState.NONE &&\n                sender == offers[offerId].creator\n            ) {\n                result = true;\n                reason = \"All cool\";\n            }\n        }\n        if (state == OfferState.COLLATERALIZED) {\n            if (sender == offers[offerId].taker) {} else {\n                result = false;\n                reason = \"person invalid COLLATERALIZED\";\n            }\n        }\n        if (state == OfferState.FILLED) {\n            if (sender == offers[offerId].creator) {} else {\n                result = false;\n                reason = \"person invalid FILLED\";\n            }\n        }\n        if (state == OfferState.ACCEPTED) {\n            if (\n                sender == offers[offerId].creator ||\n                sender == offers[offerId].taker\n            ) {} else {\n                result = false;\n                reason = \"person invalid ACCEPTED\";\n            }\n        }\n\n        return (result, reason);\n    }\n\n    function nextMove(uint256 offerId, address sender)\n        public\n        view\n        returns (string memory message, uint8 step)\n    {\n        OfferState state = offers[offerId].status;\n        message = \"Offer not available\";\n        step = 255;\n        if (state == OfferState.SUGGESTED) {\n            if (sender == offers[offerId].creator) {\n                message = \"Do You want to cancel this offer?\";\n                step = uint8(OfferState.NONE);\n            } else {\n                message = \"Put security deposit (DAI) in order to take that order\";\n                step = uint8(OfferState.COLLATERALIZED);\n            }\n        }\n        if (state == OfferState.COLLATERALIZED) {\n            if (sender == offers[offerId].taker) {\n                message = \"Prepare cash and describe meeting point to your client\";\n                step = uint8(OfferState.FILLED);\n            } else if (sender == offers[offerId].creator) {\n                message = \"Wait for meeting point instructions\";\n            }\n        }\n        if (state == OfferState.FILLED) {\n            if (sender == offers[offerId].creator) {\n                message = \"If You have got your cash, accept\";\n            }\n            step = uint8(OfferState.ACCEPTED);\n        }\n        if (state == OfferState.ACCEPTED) {\n            if (sender == offers[offerId].taker) {\n                message = \"Congratulation, your deposit and payment should be in your wallet\";\n            } else if (sender == offers[offerId].creator) {\n                message = \"Congratulation, your deposit should be back in your wallet and cash in your pocket\";\n            }\n            step = uint8(OfferState.NONE);\n        }\n        if (offers[offerId].timeStarted + OFFER_TIMEOUT > now) {\n            if (\n                sender == offers[offerId].taker ||\n                sender == offers[offerId].creator\n            ) {\n                message = \"Unfortunatelly, you did not manage to finalize order in time, click Proceed to send all your payments and deposits will be send to BitcoinsForVenezuela\";\n                step = uint8(OfferState.TIMEOUTED);\n            } else {\n                message = \"Offer not available\";\n                step = 255;\n            }\n        }\n        if (offers[offerId].timeStarted + 2 * OFFER_TIMEOUT > now) {\n            message = \"This Order was not successful, proceed to send all deposits to BitcoinsForVenezuela\";\n            step = uint8(OfferState.TIMEOUTED);\n        }\n\n        return (message, step);\n    }\n\n    function move(uint256 offerId, uint8 destinationStateInt) public {\n        OfferState destinationState = OfferState(destinationStateInt);\n        OfferState state = offers[offerId].status;\n        if (destinationState == OfferState.COLLATERALIZED) {\n            emit ProcessOffer(\n                offers[offerId].taker,\n                offers[offerId].creator,\n                offerId,\n                destinationStateInt,\n                uint8(state)\n            );\n            processToCollateralized(state, offerId);\n        }\n        if (destinationState == OfferState.FILLED) {\n            emit ProcessOffer(\n                offers[offerId].taker,\n                offers[offerId].creator,\n                offerId,\n                destinationStateInt,\n                uint8(state)\n            );\n            processToFilled(state, offerId);\n        }\n        if (destinationState == OfferState.ACCEPTED) {\n            emit ProcessOffer(\n                offers[offerId].taker,\n                offers[offerId].creator,\n                offerId,\n                destinationStateInt,\n                uint8(state)\n            );\n            processToAccepted(state, offerId);\n        }\n        if (destinationState == OfferState.TIMEOUTED) {\n            emit ProcessOffer(\n                offers[offerId].taker,\n                offers[offerId].creator,\n                offerId,\n                destinationStateInt,\n                uint8(state)\n            );\n            processToTimeouted(state, offerId);\n        }\n        if (destinationState == OfferState.NONE) {\n            emit ProcessOffer(\n                offers[offerId].taker,\n                offers[offerId].creator,\n                offerId,\n                destinationStateInt,\n                uint8(state)\n            );\n            processToNone(state, offerId);\n        }\n        offers[offerId].status = destinationState;\n\n    }\n\n    function processToNone(OfferState state, uint256 offerId) private {\n        require(state == OfferState.SUGGESTED, \"Transition to NONE invalid\");\n        require(\n            getSender() == offers[offerId].creator,\n            \"Only offer crator can cancel offer\"\n        );\n        daiToken.transferFrom(\n            address(this),\n            offers[offerId].creator,\n            offers[offerId].totalDeposited\n        );\n        offers[offerId].totalDeposited = 0;\n    }\n\n    function processToTimeouted(OfferState state, uint256 offerId) private {\n        require(\n            state != OfferState.SUGGESTED && state != OfferState.NONE,\n            \"Transition to TIMEOUT invalid\"\n        );\n        require(\n            offers[offerId].timeStarted + OFFER_TIMEOUT > block.timestamp,\n            \"Time not passed yet\"\n        );\n        daiToken.transferFrom(\n            address(this),\n            timeOutBeneficiary,\n            offers[offerId].totalDeposited\n        );\n        offers[offerId].totalDeposited = 0;\n    }\n\n    function processToAccepted(OfferState state, uint256 offerId) private {\n        require(state == OfferState.FILLED, \"Transition to ACCEPTED invalid\");\n        require(\n            getSender() == offers[offerId].creator,\n            \"Only DAI Sender (creator) can accept order\"\n        );\n        require(\n            offers[offerId].totalDeposited >= offers[offerId].sumIn * 3,\n            \"Payouts bigger than deposits\"\n        );\n        daiToken.transferFrom(\n            address(this),\n            offers[offerId].creator,\n            offers[offerId].sumIn\n        );\n        daiToken.transferFrom(\n            address(this),\n            offers[offerId].taker,\n            offers[offerId].sumIn * 2\n        );\n    }\n\n    function processToFilled(OfferState state, uint256 offerId) private {\n        require(\n            state == OfferState.COLLATERALIZED,\n            \"Transition to FILLED invalid\"\n        );\n        require(\n            getSender() == offers[offerId].taker,\n            \"Only DAI Recipient (creator) can fill order\"\n        );\n\n    }\n\n    function processToCollateralized(OfferState state, uint256 offerId)\n        private\n    {\n        if (now > offers[offerId].timeStarted) {\n            require(\n                offers[offerId].taker == address(0),\n                \"taker must not be set\"\n            );\n            require(\n                offers[offerId].creator != getSender(),\n                \"taker cannot equal creator\"\n            );\n            daiToken.transferFrom(\n                getSender(),\n                address(this),\n                offers[offerId].sumIn\n            );\n\n            offers[offerId].totalDeposited =\n                offers[offerId].totalDeposited +\n                offers[offerId].sumIn;\n\n            offers[offerId].taker = getSender();\n        } else {\n            revert(\"Transition to COLLATERALIZED invalid\");\n        }\n    }\n\n    function getLastOfferIndex() public view returns (int256) {\n        return (int256(offers.length)) - 1;\n    }\n\n    function houseKeeping() public {\n        uint256 i = lastTimeOutedOffer - 1;\n        while (gasleft() > 200000 && i < offers.length) {\n            if (offers[i].timeStarted + OFFER_TIMEOUT > now) {\n                offers[i].status = OfferState.TIMEOUTED;\n            }\n\n            i = i + 1;\n        }\n        lastTimeOutedOffer = i;\n    }\n\n    event ProcessOffer(\n        address indexed taker,\n        address indexed creator,\n        uint256 indexed offerId,\n        uint8 destinationStatus,\n        uint8 sourceStatus\n    );\n}\n",
  "sourcePath": "/home/adam/Desktop/Blockchain/private/EthMarket/contracts/Market.sol",
  "compiler": {
    "name": "solc",
    "version": "0.5.7+commit.6da8b019.Emscripten.clang"
  },
  "schemaVersion": "3.0.23",
  "updatedAt": "2020-03-21T11:29:50.542Z",
  "devdoc": {
    "methods": {}
  },
  "userdoc": {
    "methods": {}
  }
}